{
  "_format": "hh-sol-artifact-1",
  "contractName": "RoyaltiesV2Impl",
  "sourceName": "contracts/rarible/royalties/contracts/impl/RoyaltiesV2Impl.sol",
  "abi": [
    {
      "anonymous": false,
      "inputs": [
        {
          "indexed": false,
          "internalType": "uint256",
          "name": "tokenId",
          "type": "uint256"
        },
        {
          "components": [
            {
              "internalType": "address payable",
              "name": "account",
              "type": "address"
            },
            {
              "internalType": "uint96",
              "name": "value",
              "type": "uint96"
            }
          ],
          "indexed": false,
          "internalType": "struct LibPart.Part[]",
          "name": "royalties",
          "type": "tuple[]"
        }
      ],
      "name": "RoyaltiesSet",
      "type": "event"
    },
    {
      "inputs": [
        {
          "internalType": "uint256",
          "name": "id",
          "type": "uint256"
        }
      ],
      "name": "getRaribleV2Royalties",
      "outputs": [
        {
          "components": [
            {
              "internalType": "address payable",
              "name": "account",
              "type": "address"
            },
            {
              "internalType": "uint96",
              "name": "value",
              "type": "uint96"
            }
          ],
          "internalType": "struct LibPart.Part[]",
          "name": "",
          "type": "tuple[]"
        }
      ],
      "stateMutability": "view",
      "type": "function"
    },
    {
      "inputs": [
        {
          "internalType": "uint256",
          "name": "id",
          "type": "uint256"
        },
        {
          "internalType": "uint256",
          "name": "_salePrice",
          "type": "uint256"
        }
      ],
      "name": "royaltyInfo",
      "outputs": [
        {
          "internalType": "address",
          "name": "receiver",
          "type": "address"
        },
        {
          "internalType": "uint256",
          "name": "royaltyAmount",
          "type": "uint256"
        }
      ],
      "stateMutability": "view",
      "type": "function"
    }
  ],
  "bytecode": "0x608060405234801561001057600080fd5b506103c1806100206000396000f3fe608060405234801561001057600080fd5b50600436106100365760003560e01c80632a55205a1461003b578063cad96cca14610072575b600080fd5b61004e61004936600461024f565b610092565b604080516001600160a01b0390931683526020830191909152015b60405180910390f35b610085610080366004610271565b6101c9565b604051610069919061028a565b60008281526020819052604081205481906100b2575060009050806101c2565b60008481526020818152604080832080548251818502810185019093528083529192909190849084015b8282101561012b57600084815260209081902060408051808201909152908401546001600160a01b0381168252600160a01b90046001600160601b0316818301528252600190920191016100dc565b50505050905080600081518110610144576101446102eb565b60209081029190910101515192506000805b82518110156101a557828181518110610171576101716102eb565b6020026020010151602001516001600160601b0316826101919190610317565b91508061019d8161032f565b915050610156565b506127106101b3868361034a565b6101bd9190610369565b925050505b9250929050565b600081815260208181526040808320805482518185028101850190935280835260609492939192909184015b8282101561024457600084815260209081902060408051808201909152908401546001600160a01b0381168252600160a01b90046001600160601b0316818301528252600190920191016101f5565b505050509050919050565b6000806040838503121561026257600080fd5b50508035926020909101359150565b60006020828403121561028357600080fd5b5035919050565b602080825282518282018190526000919060409081850190868401855b828110156102de57815180516001600160a01b031685528601516001600160601b03168685015292840192908501906001016102a7565b5091979650505050505050565b634e487b7160e01b600052603260045260246000fd5b634e487b7160e01b600052601160045260246000fd5b6000821982111561032a5761032a610301565b500190565b600060001982141561034357610343610301565b5060010190565b600081600019048311821515161561036457610364610301565b500290565b60008261038657634e487b7160e01b600052601260045260246000fd5b50049056fea264697066735822122053f584cbc148e7dde96e6cc9c2f3464f1b6624233295dd219cd3c7f2b7c2ae7d64736f6c63430008090033",
  "linkReferences": {},
  "deployedLinkReferences": {}
}