{
  "_format": "hh-sol-artifact-1",
  "contractName": "ERC1155BaseURI",
  "sourceName": "contracts/rarible/tokens/contracts/erc-1155/ERC1155BaseURI.sol",
  "abi": [
    {
      "anonymous": false,
      "inputs": [
        {
          "indexed": true,
          "internalType": "address",
          "name": "account",
          "type": "address"
        },
        {
          "indexed": true,
          "internalType": "address",
          "name": "operator",
          "type": "address"
        },
        {
          "indexed": false,
          "internalType": "bool",
          "name": "approved",
          "type": "bool"
        }
      ],
      "name": "ApprovalForAll",
      "type": "event"
    },
    {
      "anonymous": false,
      "inputs": [
        {
          "indexed": false,
          "internalType": "uint8",
          "name": "version",
          "type": "uint8"
        }
      ],
      "name": "Initialized",
      "type": "event"
    },
    {
      "anonymous": false,
      "inputs": [
        {
          "indexed": true,
          "internalType": "address",
          "name": "operator",
          "type": "address"
        },
        {
          "indexed": true,
          "internalType": "address",
          "name": "from",
          "type": "address"
        },
        {
          "indexed": true,
          "internalType": "address",
          "name": "to",
          "type": "address"
        },
        {
          "indexed": false,
          "internalType": "uint256[]",
          "name": "ids",
          "type": "uint256[]"
        },
        {
          "indexed": false,
          "internalType": "uint256[]",
          "name": "values",
          "type": "uint256[]"
        }
      ],
      "name": "TransferBatch",
      "type": "event"
    },
    {
      "anonymous": false,
      "inputs": [
        {
          "indexed": true,
          "internalType": "address",
          "name": "operator",
          "type": "address"
        },
        {
          "indexed": true,
          "internalType": "address",
          "name": "from",
          "type": "address"
        },
        {
          "indexed": true,
          "internalType": "address",
          "name": "to",
          "type": "address"
        },
        {
          "indexed": false,
          "internalType": "uint256",
          "name": "id",
          "type": "uint256"
        },
        {
          "indexed": false,
          "internalType": "uint256",
          "name": "value",
          "type": "uint256"
        }
      ],
      "name": "TransferSingle",
      "type": "event"
    },
    {
      "anonymous": false,
      "inputs": [
        {
          "indexed": false,
          "internalType": "string",
          "name": "value",
          "type": "string"
        },
        {
          "indexed": true,
          "internalType": "uint256",
          "name": "id",
          "type": "uint256"
        }
      ],
      "name": "URI",
      "type": "event"
    },
    {
      "inputs": [
        {
          "internalType": "address",
          "name": "account",
          "type": "address"
        },
        {
          "internalType": "uint256",
          "name": "id",
          "type": "uint256"
        }
      ],
      "name": "balanceOf",
      "outputs": [
        {
          "internalType": "uint256",
          "name": "",
          "type": "uint256"
        }
      ],
      "stateMutability": "view",
      "type": "function"
    },
    {
      "inputs": [
        {
          "internalType": "address[]",
          "name": "accounts",
          "type": "address[]"
        },
        {
          "internalType": "uint256[]",
          "name": "ids",
          "type": "uint256[]"
        }
      ],
      "name": "balanceOfBatch",
      "outputs": [
        {
          "internalType": "uint256[]",
          "name": "",
          "type": "uint256[]"
        }
      ],
      "stateMutability": "view",
      "type": "function"
    },
    {
      "inputs": [],
      "name": "baseURI",
      "outputs": [
        {
          "internalType": "string",
          "name": "",
          "type": "string"
        }
      ],
      "stateMutability": "view",
      "type": "function"
    },
    {
      "inputs": [
        {
          "internalType": "address",
          "name": "account",
          "type": "address"
        },
        {
          "internalType": "address",
          "name": "operator",
          "type": "address"
        }
      ],
      "name": "isApprovedForAll",
      "outputs": [
        {
          "internalType": "bool",
          "name": "",
          "type": "bool"
        }
      ],
      "stateMutability": "view",
      "type": "function"
    },
    {
      "inputs": [
        {
          "internalType": "address",
          "name": "from",
          "type": "address"
        },
        {
          "internalType": "address",
          "name": "to",
          "type": "address"
        },
        {
          "internalType": "uint256[]",
          "name": "ids",
          "type": "uint256[]"
        },
        {
          "internalType": "uint256[]",
          "name": "amounts",
          "type": "uint256[]"
        },
        {
          "internalType": "bytes",
          "name": "data",
          "type": "bytes"
        }
      ],
      "name": "safeBatchTransferFrom",
      "outputs": [],
      "stateMutability": "nonpayable",
      "type": "function"
    },
    {
      "inputs": [
        {
          "internalType": "address",
          "name": "from",
          "type": "address"
        },
        {
          "internalType": "address",
          "name": "to",
          "type": "address"
        },
        {
          "internalType": "uint256",
          "name": "id",
          "type": "uint256"
        },
        {
          "internalType": "uint256",
          "name": "amount",
          "type": "uint256"
        },
        {
          "internalType": "bytes",
          "name": "data",
          "type": "bytes"
        }
      ],
      "name": "safeTransferFrom",
      "outputs": [],
      "stateMutability": "nonpayable",
      "type": "function"
    },
    {
      "inputs": [
        {
          "internalType": "address",
          "name": "operator",
          "type": "address"
        },
        {
          "internalType": "bool",
          "name": "approved",
          "type": "bool"
        }
      ],
      "name": "setApprovalForAll",
      "outputs": [],
      "stateMutability": "nonpayable",
      "type": "function"
    },
    {
      "inputs": [
        {
          "internalType": "bytes4",
          "name": "interfaceId",
          "type": "bytes4"
        }
      ],
      "name": "supportsInterface",
      "outputs": [
        {
          "internalType": "bool",
          "name": "",
          "type": "bool"
        }
      ],
      "stateMutability": "view",
      "type": "function"
    },
    {
      "inputs": [
        {
          "internalType": "uint256",
          "name": "id",
          "type": "uint256"
        }
      ],
      "name": "uri",
      "outputs": [
        {
          "internalType": "string",
          "name": "",
          "type": "string"
        }
      ],
      "stateMutability": "view",
      "type": "function"
    }
  ],
  "bytecode": "0x608060405234801561001057600080fd5b50611786806100206000396000f3fe608060405234801561001057600080fd5b50600436106100925760003560e01c80634e1273f4116100665780634e1273f4146101155780636c0360eb14610135578063a22cb4651461013d578063e985e9c514610150578063f242432a1461018c57600080fd5b8062fdd58e1461009757806301ffc9a7146100bd5780630e89341c146100e05780632eb2c2d614610100575b600080fd5b6100aa6100a5366004610f1c565b61019f565b6040519081526020015b60405180910390f35b6100d06100cb366004610f5f565b61023b565b60405190151581526020016100b4565b6100f36100ee366004610f7c565b610271565b6040516100b49190610ff1565b61011361010e366004611150565b61027c565b005b6101286101233660046111fa565b610510565b6040516100b49190611300565b6100f361063a565b61011361014b366004611313565b6106cc565b6100d061015e36600461134f565b6001600160a01b03918216600090815260666020908152604080832093909416825291909152205460ff1690565b61011361019a366004611382565b6107a3565b60006001600160a01b0383166102105760405162461bcd60e51b815260206004820152602b60248201527f455243313135353a2062616c616e636520717565727920666f7220746865207a60448201526a65726f206164647265737360a81b60648201526084015b60405180910390fd5b5060008181526065602090815260408083206001600160a01b03861684529091529020545b92915050565b60006001600160e01b03198216636cdb3d1360e11b148061023557506001600160e01b031982166303a24d0760e21b1492915050565b606061023582610956565b81518351146102de5760405162461bcd60e51b815260206004820152602860248201527f455243313135353a2069647320616e6420616d6f756e7473206c656e677468206044820152670dad2e6dac2e8c6d60c31b6064820152608401610207565b6001600160a01b0384166103045760405162461bcd60e51b8152600401610207906113e7565b6001600160a01b0385163314806103205750610320853361015e565b6103875760405162461bcd60e51b815260206004820152603260248201527f455243313135353a207472616e736665722063616c6c6572206973206e6f74206044820152711bdddb995c881b9bdc88185c1c1c9bdd995960721b6064820152608401610207565b3360005b84518110156104a25760008582815181106103a8576103a861142c565b6020026020010151905060008583815181106103c6576103c661142c565b60200260200101519050610433816040518060600160405280602a8152602001611727602a91396065600086815260200190815260200160002060008d6001600160a01b03166001600160a01b0316815260200190815260200160002054610a5d9092919063ffffffff16565b60008381526065602090815260408083206001600160a01b038e811685529252808320939093558a168152205461046a9082610a89565b60009283526065602090815260408085206001600160a01b038c168652909152909220919091555061049b81611458565b905061038b565b50846001600160a01b0316866001600160a01b0316826001600160a01b03167f4a39dc06d4c0dbc64b70af90fd698a233a518aa5d07e595d983b8c0526c8f7fb87876040516104f2929190611473565b60405180910390a4610508818787878787610a9c565b505050505050565b606081518351146105755760405162461bcd60e51b815260206004820152602960248201527f455243313135353a206163636f756e747320616e6420696473206c656e677468604482015268040dad2e6dac2e8c6d60bb1b6064820152608401610207565b6000835167ffffffffffffffff81111561059157610591611004565b6040519080825280602002602001820160405280156105ba578160200160208202803683370190505b50905060005b8451811015610632576106058582815181106105de576105de61142c565b60200260200101518583815181106105f8576105f861142c565b602002602001015161019f565b8282815181106106175761061761142c565b602090810291909101015261062b81611458565b90506105c0565b509392505050565b606060988054610649906114a1565b80601f0160208091040260200160405190810160405280929190818152602001828054610675906114a1565b80156106c25780601f10610697576101008083540402835291602001916106c2565b820191906000526020600020905b8154815290600101906020018083116106a557829003601f168201915b5050505050905090565b336001600160a01b03831614156107375760405162461bcd60e51b815260206004820152602960248201527f455243313135353a2073657474696e6720617070726f76616c20737461747573604482015268103337b91039b2b63360b91b6064820152608401610207565b3360008181526066602090815260408083206001600160a01b03871680855290835292819020805460ff191686151590811790915590519081529192917f17307eab39ab6107e8899845ad3d59bd9653f200f220920489ca2b5937696c31910160405180910390a35050565b6001600160a01b0384166107c95760405162461bcd60e51b8152600401610207906113e7565b6001600160a01b0385163314806107e557506107e5853361015e565b6108435760405162461bcd60e51b815260206004820152602960248201527f455243313135353a2063616c6c6572206973206e6f74206f776e6572206e6f7260448201526808185c1c1c9bdd995960ba1b6064820152608401610207565b3361086381878761085388610c10565b61085c88610c10565b5050505050565b6108aa836040518060600160405280602a8152602001611727602a913960008781526065602090815260408083206001600160a01b038d1684529091529020549190610a5d565b60008581526065602090815260408083206001600160a01b038b811685529252808320939093558716815220546108e19084610a89565b60008581526065602090815260408083206001600160a01b038a811680865291845293829020949094558051888152918201879052898316928516917fc3d58168c5ae7397731d063d5bbf3d657854427343f4c083240f7aacaa2d0f62910160405180910390a4610508818787878787610c5b565b600081815260976020526040812080546060929190610974906114a1565b80601f01602080910402602001604051908101604052809291908181526020018280546109a0906114a1565b80156109ed5780601f106109c2576101008083540402835291602001916109ed565b820191906000526020600020905b8154815290600101906020018083116109d057829003601f168201915b5050505050905060006109fe61063a565b9050805160001415610a11575092915050565b815115610a2a57610a228183610d25565b949350505050565b80610a3485610e02565b604051602001610a459291906114dc565b60405160208183030381529060405292505050919050565b60008184841115610a815760405162461bcd60e51b81526004016102079190610ff1565b505050900390565b6000610a95828461150b565b9392505050565b6001600160a01b0384163b156105085760405163bc197c8160e01b81526001600160a01b0385169063bc197c8190610ae09089908990889088908890600401611523565b602060405180830381600087803b158015610afa57600080fd5b505af1925050508015610b2a575060408051601f3d908101601f19168201909252610b2791810190611581565b60015b610bd757610b3661159e565b806308c379a01415610b705750610b4b6115ba565b80610b565750610b72565b8060405162461bcd60e51b81526004016102079190610ff1565b505b60405162461bcd60e51b815260206004820152603460248201527f455243313135353a207472616e7366657220746f206e6f6e20455243313135356044820152732932b1b2b4bb32b91034b6b83632b6b2b73a32b960611b6064820152608401610207565b6001600160e01b0319811663bc197c8160e01b14610c075760405162461bcd60e51b815260040161020790611644565b50505050505050565b60408051600180825281830190925260609160009190602080830190803683370190505090508281600081518110610c4a57610c4a61142c565b602090810291909101015292915050565b6001600160a01b0384163b156105085760405163f23a6e6160e01b81526001600160a01b0385169063f23a6e6190610c9f908990899088908890889060040161168c565b602060405180830381600087803b158015610cb957600080fd5b505af1925050508015610ce9575060408051601f3d908101601f19168201909252610ce691810190611581565b60015b610cf557610b3661159e565b6001600160e01b0319811663f23a6e6160e01b14610c075760405162461bcd60e51b815260040161020790611644565b80518251606091849184911015610d61578484604051602001610d499291906114dc565b60405160208183030381529060405292505050610235565b60005b8251811015610df857828181518110610d7f57610d7f61142c565b602001015160f81c60f81b6001600160f81b031916828281518110610da657610da661142c565b01602001516001600160f81b03191614610de6578585604051602001610dcd9291906114dc565b6040516020818303038152906040529350505050610235565b80610df081611458565b915050610d64565b5092949350505050565b606081610e265750506040805180820190915260018152600360fc1b602082015290565b8160005b8115610e505780610e3a81611458565b9150610e499050600a836116e7565b9150610e2a565b60008167ffffffffffffffff811115610e6b57610e6b611004565b6040519080825280601f01601f191660200182016040528015610e95576020820181803683370190505b5090505b8415610a2257610eaa6001836116fb565b9150610eb7600a86611712565b610ec290603061150b565b60f81b818381518110610ed757610ed761142c565b60200101906001600160f81b031916908160001a905350610ef9600a866116e7565b9450610e99565b80356001600160a01b0381168114610f1757600080fd5b919050565b60008060408385031215610f2f57600080fd5b610f3883610f00565b946020939093013593505050565b6001600160e01b031981168114610f5c57600080fd5b50565b600060208284031215610f7157600080fd5b8135610a9581610f46565b600060208284031215610f8e57600080fd5b5035919050565b60005b83811015610fb0578181015183820152602001610f98565b83811115610fbf576000848401525b50505050565b60008151808452610fdd816020860160208601610f95565b601f01601f19169290920160200192915050565b602081526000610a956020830184610fc5565b634e487b7160e01b600052604160045260246000fd5b601f8201601f1916810167ffffffffffffffff8111828210171561104057611040611004565b6040525050565b600067ffffffffffffffff82111561106157611061611004565b5060051b60200190565b600082601f83011261107c57600080fd5b8135602061108982611047565b604051611096828261101a565b83815260059390931b85018201928281019150868411156110b657600080fd5b8286015b848110156110d157803583529183019183016110ba565b509695505050505050565b600082601f8301126110ed57600080fd5b813567ffffffffffffffff81111561110757611107611004565b60405161111e601f8301601f19166020018261101a565b81815284602083860101111561113357600080fd5b816020850160208301376000918101602001919091529392505050565b600080600080600060a0868803121561116857600080fd5b61117186610f00565b945061117f60208701610f00565b9350604086013567ffffffffffffffff8082111561119c57600080fd5b6111a889838a0161106b565b945060608801359150808211156111be57600080fd5b6111ca89838a0161106b565b935060808801359150808211156111e057600080fd5b506111ed888289016110dc565b9150509295509295909350565b6000806040838503121561120d57600080fd5b823567ffffffffffffffff8082111561122557600080fd5b818501915085601f83011261123957600080fd5b8135602061124682611047565b604051611253828261101a565b83815260059390931b850182019282810191508984111561127357600080fd5b948201945b838610156112985761128986610f00565b82529482019490820190611278565b965050860135925050808211156112ae57600080fd5b506112bb8582860161106b565b9150509250929050565b600081518084526020808501945080840160005b838110156112f5578151875295820195908201906001016112d9565b509495945050505050565b602081526000610a9560208301846112c5565b6000806040838503121561132657600080fd5b61132f83610f00565b91506020830135801515811461134457600080fd5b809150509250929050565b6000806040838503121561136257600080fd5b61136b83610f00565b915061137960208401610f00565b90509250929050565b600080600080600060a0868803121561139a57600080fd5b6113a386610f00565b94506113b160208701610f00565b93506040860135925060608601359150608086013567ffffffffffffffff8111156113db57600080fd5b6111ed888289016110dc565b60208082526025908201527f455243313135353a207472616e7366657220746f20746865207a65726f206164604082015264647265737360d81b606082015260800190565b634e487b7160e01b600052603260045260246000fd5b634e487b7160e01b600052601160045260246000fd5b600060001982141561146c5761146c611442565b5060010190565b60408152600061148660408301856112c5565b828103602084015261149881856112c5565b95945050505050565b600181811c908216806114b557607f821691505b602082108114156114d657634e487b7160e01b600052602260045260246000fd5b50919050565b600083516114ee818460208801610f95565b835190830190611502818360208801610f95565b01949350505050565b6000821982111561151e5761151e611442565b500190565b6001600160a01b0386811682528516602082015260a06040820181905260009061154f908301866112c5565b828103606084015261156181866112c5565b905082810360808401526115758185610fc5565b98975050505050505050565b60006020828403121561159357600080fd5b8151610a9581610f46565b600060033d11156115b75760046000803e5060005160e01c5b90565b600060443d10156115c85790565b6040516003193d81016004833e81513d67ffffffffffffffff81602484011181841117156115f857505050505090565b82850191508151818111156116105750505050505090565b843d870101602082850101111561162a5750505050505090565b6116396020828601018761101a565b509095945050505050565b60208082526028908201527f455243313135353a204552433131353552656365697665722072656a656374656040820152676420746f6b656e7360c01b606082015260800190565b6001600160a01b03868116825285166020820152604081018490526060810183905260a0608082018190526000906116c690830184610fc5565b979650505050505050565b634e487b7160e01b600052601260045260246000fd5b6000826116f6576116f66116d1565b500490565b60008282101561170d5761170d611442565b500390565b600082611721576117216116d1565b50069056fe455243313135353a20696e73756666696369656e742062616c616e636520666f72207472616e73666572a264697066735822122057f1ed8be0ac273af8c30d630c76031017281df26d5e63d4aaffef0cd439af4f64736f6c63430008090033",
  "linkReferences": {},
  "deployedLinkReferences": {}
}