{
  "_format": "hh-sol-artifact-1",
  "contractName": "TestRoyaltyV2981Calculate",
  "sourceName": "contracts/rarible/tokens/test/contracts/TestRoyaltyV2981Calculate.sol",
  "abi": [
    {
      "inputs": [
        {
          "internalType": "address",
          "name": "to",
          "type": "address"
        },
        {
          "internalType": "uint256",
          "name": "amount",
          "type": "uint256"
        }
      ],
      "name": "calculateRoyaltiesTest",
      "outputs": [
        {
          "components": [
            {
              "internalType": "address payable",
              "name": "account",
              "type": "address"
            },
            {
              "internalType": "uint96",
              "name": "value",
              "type": "uint96"
            }
          ],
          "internalType": "struct LibPart.Part[]",
          "name": "",
          "type": "tuple[]"
        }
      ],
      "stateMutability": "pure",
      "type": "function"
    }
  ],
  "bytecode": "0x608060405234801561001057600080fd5b506102db806100206000396000f3fe608060405234801561001057600080fd5b506004361061002b5760003560e01c8063585c1f6414610030575b600080fd5b61004361003e3660046101a2565b610059565b60405161005091906101da565b60405180910390f35b6060610065838361006e565b90505b92915050565b6060808261007d579050610068565b6000620f424061008f85612710610240565b610099919061026d565b905061271081106100f05760405162461bcd60e51b815260206004820152601b60248201527f526f79616c746965732032393831206578636565647320313030250000000000604482015260640160405180910390fd5b60408051600180825281830190925290816020015b604080518082019091526000808252602082015281526020019060019003908161010557905050915084826000815181106101425761014261028f565b6020026020010151600001906001600160a01b031690816001600160a01b031681525050808260008151811061017a5761017a61028f565b6020908102919091018101516bffffffffffffffffffffffff90921691015250905092915050565b600080604083850312156101b557600080fd5b82356001600160a01b03811681146101cc57600080fd5b946020939093013593505050565b602080825282518282018190526000919060409081850190868401855b8281101561023357815180516001600160a01b031685528601516bffffffffffffffffffffffff168685015292840192908501906001016101f7565b5091979650505050505050565b600081600019048311821515161561026857634e487b7160e01b600052601160045260246000fd5b500290565b60008261028a57634e487b7160e01b600052601260045260246000fd5b500490565b634e487b7160e01b600052603260045260246000fdfea264697066735822122068964fde5b0e107b66aaecbf089848c2b4c21a75d2b1f67102ceeff290e73ba364736f6c63430008090033",
  "linkReferences": {},
  "deployedLinkReferences": {}
}