{
  "_format": "hh-sol-artifact-1",
  "contractName": "ERC1155Rarible",
  "sourceName": "contracts/rarible/tokens/contracts/erc-1155/ERC1155Rarible.sol",
  "abi": [
    {
      "anonymous": false,
      "inputs": [
        {
          "indexed": true,
          "internalType": "address",
          "name": "account",
          "type": "address"
        },
        {
          "indexed": true,
          "internalType": "address",
          "name": "operator",
          "type": "address"
        },
        {
          "indexed": false,
          "internalType": "bool",
          "name": "approved",
          "type": "bool"
        }
      ],
      "name": "ApprovalForAll",
      "type": "event"
    },
    {
      "anonymous": false,
      "inputs": [
        {
          "indexed": false,
          "internalType": "string",
          "name": "newBaseURI",
          "type": "string"
        }
      ],
      "name": "BaseUriChanged",
      "type": "event"
    },
    {
      "anonymous": false,
      "inputs": [
        {
          "indexed": true,
          "internalType": "address",
          "name": "operator",
          "type": "address"
        },
        {
          "indexed": true,
          "internalType": "address",
          "name": "account",
          "type": "address"
        },
        {
          "indexed": false,
          "internalType": "uint256",
          "name": "id",
          "type": "uint256"
        },
        {
          "indexed": false,
          "internalType": "uint256",
          "name": "amount",
          "type": "uint256"
        }
      ],
      "name": "BurnLazy",
      "type": "event"
    },
    {
      "anonymous": false,
      "inputs": [
        {
          "indexed": true,
          "internalType": "address",
          "name": "operator",
          "type": "address"
        },
        {
          "indexed": true,
          "internalType": "address",
          "name": "account",
          "type": "address"
        },
        {
          "indexed": false,
          "internalType": "uint256[]",
          "name": "ids",
          "type": "uint256[]"
        },
        {
          "indexed": false,
          "internalType": "uint256[]",
          "name": "amounts",
          "type": "uint256[]"
        }
      ],
      "name": "BurnLazyBatch",
      "type": "event"
    },
    {
      "anonymous": false,
      "inputs": [
        {
          "indexed": false,
          "internalType": "address",
          "name": "owner",
          "type": "address"
        },
        {
          "indexed": false,
          "internalType": "string",
          "name": "name",
          "type": "string"
        },
        {
          "indexed": false,
          "internalType": "string",
          "name": "symbol",
          "type": "string"
        }
      ],
      "name": "CreateERC1155Rarible",
      "type": "event"
    },
    {
      "anonymous": false,
      "inputs": [
        {
          "indexed": false,
          "internalType": "address",
          "name": "owner",
          "type": "address"
        },
        {
          "indexed": false,
          "internalType": "string",
          "name": "name",
          "type": "string"
        },
        {
          "indexed": false,
          "internalType": "string",
          "name": "symbol",
          "type": "string"
        }
      ],
      "name": "CreateERC1155RaribleUser",
      "type": "event"
    },
    {
      "anonymous": false,
      "inputs": [
        {
          "indexed": false,
          "internalType": "uint256",
          "name": "tokenId",
          "type": "uint256"
        },
        {
          "components": [
            {
              "internalType": "address payable",
              "name": "account",
              "type": "address"
            },
            {
              "internalType": "uint96",
              "name": "value",
              "type": "uint96"
            }
          ],
          "indexed": false,
          "internalType": "struct LibPart.Part[]",
          "name": "creators",
          "type": "tuple[]"
        }
      ],
      "name": "Creators",
      "type": "event"
    },
    {
      "anonymous": false,
      "inputs": [
        {
          "indexed": true,
          "internalType": "address",
          "name": "operator",
          "type": "address"
        },
        {
          "indexed": false,
          "internalType": "bool",
          "name": "hasApproval",
          "type": "bool"
        }
      ],
      "name": "DefaultApproval",
      "type": "event"
    },
    {
      "anonymous": false,
      "inputs": [
        {
          "indexed": false,
          "internalType": "uint8",
          "name": "version",
          "type": "uint8"
        }
      ],
      "name": "Initialized",
      "type": "event"
    },
    {
      "anonymous": false,
      "inputs": [
        {
          "indexed": true,
          "internalType": "address",
          "name": "minter",
          "type": "address"
        },
        {
          "indexed": true,
          "internalType": "bool",
          "name": "status",
          "type": "bool"
        }
      ],
      "name": "MinterStatusChanged",
      "type": "event"
    },
    {
      "anonymous": false,
      "inputs": [
        {
          "indexed": true,
          "internalType": "address",
          "name": "previousOwner",
          "type": "address"
        },
        {
          "indexed": true,
          "internalType": "address",
          "name": "newOwner",
          "type": "address"
        }
      ],
      "name": "OwnershipTransferred",
      "type": "event"
    },
    {
      "anonymous": false,
      "inputs": [
        {
          "indexed": false,
          "internalType": "uint256",
          "name": "tokenId",
          "type": "uint256"
        },
        {
          "components": [
            {
              "internalType": "address payable",
              "name": "account",
              "type": "address"
            },
            {
              "internalType": "uint96",
              "name": "value",
              "type": "uint96"
            }
          ],
          "indexed": false,
          "internalType": "struct LibPart.Part[]",
          "name": "royalties",
          "type": "tuple[]"
        }
      ],
      "name": "RoyaltiesSet",
      "type": "event"
    },
    {
      "anonymous": false,
      "inputs": [
        {
          "indexed": false,
          "internalType": "uint256",
          "name": "tokenId",
          "type": "uint256"
        },
        {
          "indexed": false,
          "internalType": "uint256",
          "name": "value",
          "type": "uint256"
        }
      ],
      "name": "Supply",
      "type": "event"
    },
    {
      "anonymous": false,
      "inputs": [
        {
          "indexed": true,
          "internalType": "address",
          "name": "operator",
          "type": "address"
        },
        {
          "indexed": true,
          "internalType": "address",
          "name": "from",
          "type": "address"
        },
        {
          "indexed": true,
          "internalType": "address",
          "name": "to",
          "type": "address"
        },
        {
          "indexed": false,
          "internalType": "uint256[]",
          "name": "ids",
          "type": "uint256[]"
        },
        {
          "indexed": false,
          "internalType": "uint256[]",
          "name": "values",
          "type": "uint256[]"
        }
      ],
      "name": "TransferBatch",
      "type": "event"
    },
    {
      "anonymous": false,
      "inputs": [
        {
          "indexed": true,
          "internalType": "address",
          "name": "operator",
          "type": "address"
        },
        {
          "indexed": true,
          "internalType": "address",
          "name": "from",
          "type": "address"
        },
        {
          "indexed": true,
          "internalType": "address",
          "name": "to",
          "type": "address"
        },
        {
          "indexed": false,
          "internalType": "uint256",
          "name": "id",
          "type": "uint256"
        },
        {
          "indexed": false,
          "internalType": "uint256",
          "name": "value",
          "type": "uint256"
        }
      ],
      "name": "TransferSingle",
      "type": "event"
    },
    {
      "anonymous": false,
      "inputs": [
        {
          "indexed": false,
          "internalType": "string",
          "name": "value",
          "type": "string"
        },
        {
          "indexed": true,
          "internalType": "uint256",
          "name": "id",
          "type": "uint256"
        }
      ],
      "name": "URI",
      "type": "event"
    },
    {
      "inputs": [
        {
          "internalType": "string",
          "name": "_name",
          "type": "string"
        },
        {
          "internalType": "string",
          "name": "_symbol",
          "type": "string"
        },
        {
          "internalType": "string",
          "name": "baseURI",
          "type": "string"
        },
        {
          "internalType": "string",
          "name": "contractURI",
          "type": "string"
        },
        {
          "internalType": "address[]",
          "name": "operators",
          "type": "address[]"
        },
        {
          "internalType": "address",
          "name": "transferProxy",
          "type": "address"
        },
        {
          "internalType": "address",
          "name": "lazyTransferProxy",
          "type": "address"
        }
      ],
      "name": "__ERC1155RaribleUser_init",
      "outputs": [],
      "stateMutability": "nonpayable",
      "type": "function"
    },
    {
      "inputs": [
        {
          "internalType": "string",
          "name": "_name",
          "type": "string"
        },
        {
          "internalType": "string",
          "name": "_symbol",
          "type": "string"
        },
        {
          "internalType": "string",
          "name": "baseURI",
          "type": "string"
        },
        {
          "internalType": "string",
          "name": "contractURI",
          "type": "string"
        },
        {
          "internalType": "address",
          "name": "transferProxy",
          "type": "address"
        },
        {
          "internalType": "address",
          "name": "lazyTransferProxy",
          "type": "address"
        }
      ],
      "name": "__ERC1155Rarible_init",
      "outputs": [],
      "stateMutability": "nonpayable",
      "type": "function"
    },
    {
      "inputs": [
        {
          "internalType": "address",
          "name": "_minter",
          "type": "address"
        }
      ],
      "name": "addMinter",
      "outputs": [],
      "stateMutability": "nonpayable",
      "type": "function"
    },
    {
      "inputs": [
        {
          "internalType": "address",
          "name": "account",
          "type": "address"
        },
        {
          "internalType": "uint256",
          "name": "id",
          "type": "uint256"
        }
      ],
      "name": "balanceOf",
      "outputs": [
        {
          "internalType": "uint256",
          "name": "",
          "type": "uint256"
        }
      ],
      "stateMutability": "view",
      "type": "function"
    },
    {
      "inputs": [
        {
          "internalType": "address[]",
          "name": "accounts",
          "type": "address[]"
        },
        {
          "internalType": "uint256[]",
          "name": "ids",
          "type": "uint256[]"
        }
      ],
      "name": "balanceOfBatch",
      "outputs": [
        {
          "internalType": "uint256[]",
          "name": "",
          "type": "uint256[]"
        }
      ],
      "stateMutability": "view",
      "type": "function"
    },
    {
      "inputs": [],
      "name": "baseURI",
      "outputs": [
        {
          "internalType": "string",
          "name": "",
          "type": "string"
        }
      ],
      "stateMutability": "view",
      "type": "function"
    },
    {
      "inputs": [
        {
          "internalType": "address",
          "name": "account",
          "type": "address"
        },
        {
          "internalType": "uint256",
          "name": "id",
          "type": "uint256"
        },
        {
          "internalType": "uint256",
          "name": "amount",
          "type": "uint256"
        }
      ],
      "name": "burn",
      "outputs": [],
      "stateMutability": "nonpayable",
      "type": "function"
    },
    {
      "inputs": [
        {
          "internalType": "address",
          "name": "account",
          "type": "address"
        },
        {
          "internalType": "uint256[]",
          "name": "ids",
          "type": "uint256[]"
        },
        {
          "internalType": "uint256[]",
          "name": "amounts",
          "type": "uint256[]"
        }
      ],
      "name": "burnBatch",
      "outputs": [],
      "stateMutability": "nonpayable",
      "type": "function"
    },
    {
      "inputs": [],
      "name": "contractURI",
      "outputs": [
        {
          "internalType": "string",
          "name": "",
          "type": "string"
        }
      ],
      "stateMutability": "view",
      "type": "function"
    },
    {
      "inputs": [
        {
          "internalType": "uint256",
          "name": "_id",
          "type": "uint256"
        }
      ],
      "name": "getCreators",
      "outputs": [
        {
          "components": [
            {
              "internalType": "address payable",
              "name": "account",
              "type": "address"
            },
            {
              "internalType": "uint96",
              "name": "value",
              "type": "uint96"
            }
          ],
          "internalType": "struct LibPart.Part[]",
          "name": "",
          "type": "tuple[]"
        }
      ],
      "stateMutability": "view",
      "type": "function"
    },
    {
      "inputs": [
        {
          "internalType": "uint256",
          "name": "id",
          "type": "uint256"
        }
      ],
      "name": "getRaribleV2Royalties",
      "outputs": [
        {
          "components": [
            {
              "internalType": "address payable",
              "name": "account",
              "type": "address"
            },
            {
              "internalType": "uint96",
              "name": "value",
              "type": "uint96"
            }
          ],
          "internalType": "struct LibPart.Part[]",
          "name": "",
          "type": "tuple[]"
        }
      ],
      "stateMutability": "view",
      "type": "function"
    },
    {
      "inputs": [
        {
          "internalType": "address",
          "name": "_owner",
          "type": "address"
        },
        {
          "internalType": "address",
          "name": "_operator",
          "type": "address"
        }
      ],
      "name": "isApprovedForAll",
      "outputs": [
        {
          "internalType": "bool",
          "name": "",
          "type": "bool"
        }
      ],
      "stateMutability": "view",
      "type": "function"
    },
    {
      "inputs": [
        {
          "internalType": "address",
          "name": "account",
          "type": "address"
        }
      ],
      "name": "isMinter",
      "outputs": [
        {
          "internalType": "bool",
          "name": "",
          "type": "bool"
        }
      ],
      "stateMutability": "view",
      "type": "function"
    },
    {
      "inputs": [
        {
          "components": [
            {
              "internalType": "uint256",
              "name": "tokenId",
              "type": "uint256"
            },
            {
              "internalType": "string",
              "name": "tokenURI",
              "type": "string"
            },
            {
              "internalType": "uint256",
              "name": "supply",
              "type": "uint256"
            },
            {
              "components": [
                {
                  "internalType": "address payable",
                  "name": "account",
                  "type": "address"
                },
                {
                  "internalType": "uint96",
                  "name": "value",
                  "type": "uint96"
                }
              ],
              "internalType": "struct LibPart.Part[]",
              "name": "creators",
              "type": "tuple[]"
            },
            {
              "components": [
                {
                  "internalType": "address payable",
                  "name": "account",
                  "type": "address"
                },
                {
                  "internalType": "uint96",
                  "name": "value",
                  "type": "uint96"
                }
              ],
              "internalType": "struct LibPart.Part[]",
              "name": "royalties",
              "type": "tuple[]"
            },
            {
              "internalType": "bytes[]",
              "name": "signatures",
              "type": "bytes[]"
            }
          ],
          "internalType": "struct LibERC1155LazyMint.Mint1155Data",
          "name": "data",
          "type": "tuple"
        },
        {
          "internalType": "address",
          "name": "to",
          "type": "address"
        },
        {
          "internalType": "uint256",
          "name": "_amount",
          "type": "uint256"
        }
      ],
      "name": "mintAndTransfer",
      "outputs": [],
      "stateMutability": "nonpayable",
      "type": "function"
    },
    {
      "inputs": [],
      "name": "name",
      "outputs": [
        {
          "internalType": "string",
          "name": "",
          "type": "string"
        }
      ],
      "stateMutability": "view",
      "type": "function"
    },
    {
      "inputs": [],
      "name": "owner",
      "outputs": [
        {
          "internalType": "address",
          "name": "",
          "type": "address"
        }
      ],
      "stateMutability": "view",
      "type": "function"
    },
    {
      "inputs": [
        {
          "internalType": "address",
          "name": "_minter",
          "type": "address"
        }
      ],
      "name": "removeMinter",
      "outputs": [],
      "stateMutability": "nonpayable",
      "type": "function"
    },
    {
      "inputs": [],
      "name": "renounceOwnership",
      "outputs": [],
      "stateMutability": "nonpayable",
      "type": "function"
    },
    {
      "inputs": [
        {
          "internalType": "uint256",
          "name": "id",
          "type": "uint256"
        },
        {
          "internalType": "uint256",
          "name": "_salePrice",
          "type": "uint256"
        }
      ],
      "name": "royaltyInfo",
      "outputs": [
        {
          "internalType": "address",
          "name": "receiver",
          "type": "address"
        },
        {
          "internalType": "uint256",
          "name": "royaltyAmount",
          "type": "uint256"
        }
      ],
      "stateMutability": "view",
      "type": "function"
    },
    {
      "inputs": [
        {
          "internalType": "address",
          "name": "from",
          "type": "address"
        },
        {
          "internalType": "address",
          "name": "to",
          "type": "address"
        },
        {
          "internalType": "uint256[]",
          "name": "ids",
          "type": "uint256[]"
        },
        {
          "internalType": "uint256[]",
          "name": "amounts",
          "type": "uint256[]"
        },
        {
          "internalType": "bytes",
          "name": "data",
          "type": "bytes"
        }
      ],
      "name": "safeBatchTransferFrom",
      "outputs": [],
      "stateMutability": "nonpayable",
      "type": "function"
    },
    {
      "inputs": [
        {
          "internalType": "address",
          "name": "from",
          "type": "address"
        },
        {
          "internalType": "address",
          "name": "to",
          "type": "address"
        },
        {
          "internalType": "uint256",
          "name": "id",
          "type": "uint256"
        },
        {
          "internalType": "uint256",
          "name": "amount",
          "type": "uint256"
        },
        {
          "internalType": "bytes",
          "name": "data",
          "type": "bytes"
        }
      ],
      "name": "safeTransferFrom",
      "outputs": [],
      "stateMutability": "nonpayable",
      "type": "function"
    },
    {
      "inputs": [
        {
          "internalType": "address",
          "name": "operator",
          "type": "address"
        },
        {
          "internalType": "bool",
          "name": "approved",
          "type": "bool"
        }
      ],
      "name": "setApprovalForAll",
      "outputs": [],
      "stateMutability": "nonpayable",
      "type": "function"
    },
    {
      "inputs": [
        {
          "internalType": "string",
          "name": "newBaseURI",
          "type": "string"
        }
      ],
      "name": "setBaseURI",
      "outputs": [],
      "stateMutability": "nonpayable",
      "type": "function"
    },
    {
      "inputs": [
        {
          "internalType": "bytes4",
          "name": "interfaceId",
          "type": "bytes4"
        }
      ],
      "name": "supportsInterface",
      "outputs": [
        {
          "internalType": "bool",
          "name": "",
          "type": "bool"
        }
      ],
      "stateMutability": "view",
      "type": "function"
    },
    {
      "inputs": [],
      "name": "symbol",
      "outputs": [
        {
          "internalType": "string",
          "name": "",
          "type": "string"
        }
      ],
      "stateMutability": "view",
      "type": "function"
    },
    {
      "inputs": [
        {
          "components": [
            {
              "internalType": "uint256",
              "name": "tokenId",
              "type": "uint256"
            },
            {
              "internalType": "string",
              "name": "tokenURI",
              "type": "string"
            },
            {
              "internalType": "uint256",
              "name": "supply",
              "type": "uint256"
            },
            {
              "components": [
                {
                  "internalType": "address payable",
                  "name": "account",
                  "type": "address"
                },
                {
                  "internalType": "uint96",
                  "name": "value",
                  "type": "uint96"
                }
              ],
              "internalType": "struct LibPart.Part[]",
              "name": "creators",
              "type": "tuple[]"
            },
            {
              "components": [
                {
                  "internalType": "address payable",
                  "name": "account",
                  "type": "address"
                },
                {
                  "internalType": "uint96",
                  "name": "value",
                  "type": "uint96"
                }
              ],
              "internalType": "struct LibPart.Part[]",
              "name": "royalties",
              "type": "tuple[]"
            },
            {
              "internalType": "bytes[]",
              "name": "signatures",
              "type": "bytes[]"
            }
          ],
          "internalType": "struct LibERC1155LazyMint.Mint1155Data",
          "name": "data",
          "type": "tuple"
        },
        {
          "internalType": "address",
          "name": "from",
          "type": "address"
        },
        {
          "internalType": "address",
          "name": "to",
          "type": "address"
        },
        {
          "internalType": "uint256",
          "name": "amount",
          "type": "uint256"
        }
      ],
      "name": "transferFromOrMint",
      "outputs": [],
      "stateMutability": "nonpayable",
      "type": "function"
    },
    {
      "inputs": [
        {
          "internalType": "address",
          "name": "newOwner",
          "type": "address"
        }
      ],
      "name": "transferOwnership",
      "outputs": [],
      "stateMutability": "nonpayable",
      "type": "function"
    },
    {
      "inputs": [
        {
          "internalType": "uint256",
          "name": "_id",
          "type": "uint256"
        },
        {
          "internalType": "address",
          "name": "_from",
          "type": "address"
        },
        {
          "internalType": "address",
          "name": "_to",
          "type": "address"
        }
      ],
      "name": "updateAccount",
      "outputs": [],
      "stateMutability": "nonpayable",
      "type": "function"
    },
    {
      "inputs": [
        {
          "internalType": "uint256",
          "name": "id",
          "type": "uint256"
        }
      ],
      "name": "uri",
      "outputs": [
        {
          "internalType": "string",
          "name": "",
          "type": "string"
        }
      ],
      "stateMutability": "view",
      "type": "function"
    }
  ],
  "bytecode": "0x608060405234801561001057600080fd5b50614e30806100206000396000f3fe608060405234801561001057600080fd5b50600436106101ce5760003560e01c8063715018a611610104578063cad96cca116100a2578063f242432a11610071578063f242432a14610404578063f2fde38b14610417578063f5298aca1461042a578063ffc4e0a71461043d57600080fd5b8063cad96cca146103c3578063e07f2319146103d6578063e8a3d485146103e9578063e985e9c5146103f157600080fd5b806395d89b41116100de57806395d89b4114610368578063983b2d5614610370578063a22cb46514610383578063aa271e1a1461039657600080fd5b8063715018a614610325578063891be9741461032d5780638da5cb5b1461034d57600080fd5b80632eb2c2d61161017157806355f804b31161014b57806355f804b3146102e457806361e05459146102f75780636b20c4541461030a5780636c0360eb1461031d57600080fd5b80632eb2c2d61461029e5780633092afd5146102b15780634e1273f4146102c457600080fd5b80630e89341c116101ad5780630e89341c146102315780630eaead6714610244578063173c43d2146102595780632a55205a1461026c57600080fd5b8062fdd58e146101d357806301ffc9a7146101f957806306fdde031461021c575b600080fd5b6101e66101e1366004613b61565b610450565b6040519081526020015b60405180910390f35b61020c610207366004613ba3565b6104ec565b60405190151581526020016101f0565b6102246104f7565b6040516101f09190613c18565b61022461023f366004613c2b565b610586565b610257610252366004613f81565b610591565b005b610257610267366004613fda565b610682565b61027f61027a3660046140a6565b6106de565b604080516001600160a01b0390931683526020830191909152016101f0565b6102576102ac36600461412e565b610819565b6102576102bf3660046141db565b610a6c565b6102d76102d2366004614267565b610ac2565b6040516101f09190614305565b6102576102f2366004614318565b610beb565b61025761030536600461434c565b610c36565b61025761031836600461443e565b610cdf565b610224610ea3565b610257610f36565b61034061033b366004613c2b565b610f4a565b6040516101f09190614500565b6033546040516001600160a01b0390911681526020016101f0565b610224610fda565b61025761037e3660046141db565b610fe8565b610257610391366004614513565b611043565b61020c6103a43660046141db565b6001600160a01b031660009081526102c8602052604090205460ff1690565b6103406103d1366004613c2b565b61111a565b6102576103e4366004614551565b611195565b6102246111e6565b61020c6103ff366004614593565b6111f4565b6102576104123660046145c1565b611207565b6102576104253660046141db565b611366565b610257610438366004614629565b6113df565b61025761044b36600461465e565b61144b565b60006001600160a01b0383166104c15760405162461bcd60e51b815260206004820152602b60248201527f455243313135353a2062616c616e636520717565727920666f7220746865207a60448201526a65726f206164647265737360a81b60648201526084015b60405180910390fd5b5060008181526097602090815260408083206001600160a01b03861684529091529020545b92915050565b60006104e6826114af565b6102628054610505906146c7565b80601f0160208091040260200160405190810160405280929190818152602001828054610531906146c7565b801561057e5780601f106105535761010080835404028352916020019161057e565b820191906000526020600020905b81548152906001019060200180831161056157829003601f168201915b505050505081565b60606104e6826114ba565b6102965460ff16156106725782606001516000815181106105b4576105b4614702565b6020026020010151600001516001600160a01b03166105db6033546001600160a01b031690565b6001600160a01b031614806106305750610630836060015160008151811061060557610605614702565b6020026020010151600001516001600160a01b031660009081526102c8602052604090205460ff1690565b6106725760405162461bcd60e51b81526020600482015260136024820152723737ba1037bbb732b91037b91036b4b73a32b960691b60448201526064016104b8565b61067d8383836115c2565b505050565b6106908686868686866119d8565b610296805460ff191690557fcc215b7682459c30faa0e854780165d503a7d62d22a9aaaad6334585dc63343e3387876040516106ce93929190614718565b60405180910390a1505050505050565b60008281526101fa602052604081205481906106ff57506000905080610812565b60008481526101fa6020908152604080832080548251818502810185019093528083529192909190849084015b8282101561077b57600084815260209081902060408051808201909152908401546001600160a01b0381168252600160a01b90046001600160601b03168183015282526001909201910161072c565b5050505090508060008151811061079457610794614702565b60209081029190910101515192506000805b82518110156107f5578281815181106107c1576107c1614702565b6020026020010151602001516001600160601b0316826107e19190614764565b9150806107ed8161477c565b9150506107a6565b506127106108038683614797565b61080d91906147cc565b925050505b9250929050565b815183511461083a5760405162461bcd60e51b81526004016104b8906147e0565b6001600160a01b0384166108605760405162461bcd60e51b81526004016104b890614828565b6001600160a01b03851633148061087c575061087c85336111f4565b6108e35760405162461bcd60e51b815260206004820152603260248201527f455243313135353a207472616e736665722063616c6c6572206973206e6f74206044820152711bdddb995c881b9bdc88185c1c1c9bdd995960721b60648201526084016104b8565b3360005b84518110156109fe57600085828151811061090457610904614702565b60200260200101519050600085838151811061092257610922614702565b6020026020010151905061098f816040518060600160405280602a8152602001614d71602a91396097600086815260200190815260200160002060008d6001600160a01b03166001600160a01b0316815260200190815260200160002054611b149092919063ffffffff16565b60008381526097602090815260408083206001600160a01b038e811685529252808320939093558a16815220546109c69082611b40565b60009283526097602090815260408085206001600160a01b038c16865290915290922091909155506109f78161477c565b90506108e7565b50846001600160a01b0316866001600160a01b0316826001600160a01b03167f4a39dc06d4c0dbc64b70af90fd698a233a518aa5d07e595d983b8c0526c8f7fb8787604051610a4e92919061486d565b60405180910390a4610a64818787878787611b4c565b505050505050565b610a74611cb7565b6001600160a01b03811660008181526102c86020526040808220805460ff19169055519091907f3042b80e435ae46c334b2cfec51a66d64c9a8a8af4cd0c279a124c35a09e91dd908390a350565b60608151835114610b275760405162461bcd60e51b815260206004820152602960248201527f455243313135353a206163636f756e747320616e6420696473206c656e677468604482015268040dad2e6dac2e8c6d60bb1b60648201526084016104b8565b600083516001600160401b03811115610b4257610b42613c44565b604051908082528060200260200182016040528015610b6b578160200160208202803683370190505b50905060005b8451811015610be357610bb6858281518110610b8f57610b8f614702565b6020026020010151858381518110610ba957610ba9614702565b6020026020010151610450565b828281518110610bc857610bc8614702565b6020908102919091010152610bdc8161477c565b9050610b71565b509392505050565b610bf3611cb7565b610bfc81611d11565b7f87cdeaffd8e70903d6ce7cc983fac3b09ca79e83818124c98e47a1d70f8027d681604051610c2b9190613c18565b60405180910390a150565b610c448787878786866119d8565b60005b8351811015610c8657610c74848281518110610c6557610c65614702565b60200260200101516001611043565b80610c7e8161477c565b915050610c47565b50610296805460ff191660011790557f7da6bc204c8c4856a6aff786a6cb81c59477c782191dc51837d644a8ad50f2cc610cbd3390565b8888604051610cce93929190614718565b60405180910390a150505050505050565b8051825114610d215760405162461bcd60e51b815260206004820152600e60248201526d69647320213d20616d6f756e747360901b60448201526064016104b8565b600082516001600160401b03811115610d3c57610d3c613c44565b604051908082528060200260200182016040528015610d65578160200160208202803683370190505b509050600083516001600160401b03811115610d8357610d83613c44565b604051908082528060200260200182016040528015610dac578160200160208202803683370190505b50905060005b8451811015610e4357610df7858281518110610dd057610dd0614702565b6020026020010151858381518110610dea57610dea614702565b6020026020010151611d29565b848381518110610e0957610e09614702565b60200260200101848481518110610e2257610e22614702565b60209081029190910101919091525280610e3b8161477c565b915050610db2565b50610e4f858584611d9c565b6001600160a01b038516336001600160a01b03167fcf3391513e21a9d4a0348f8e890080170eba18dc62db35b60d8a518b7088eb3a8684604051610e9492919061486d565b60405180910390a35050505050565b606061012f8054610eb3906146c7565b80601f0160208091040260200160405190810160405280929190818152602001828054610edf906146c7565b8015610f2c5780601f10610f0157610100808354040283529160200191610f2c565b820191906000526020600020905b815481529060010190602001808311610f0f57829003601f168201915b5050505050905090565b610f3e611cb7565b610f486000611ddf565b565b60606101fb6000838152602001908152602001600020805480602002602001604051908101604052809291908181526020016000905b82821015610fcf57600084815260209081902060408051808201909152908401546001600160a01b0381168252600160a01b90046001600160601b031681830152825260019092019101610f80565b505050509050919050565b6102638054610505906146c7565b610ff0611cb7565b6001600160a01b03811660008181526102c86020526040808220805460ff1916600190811790915590519092917f3042b80e435ae46c334b2cfec51a66d64c9a8a8af4cd0c279a124c35a09e91dd91a350565b336001600160a01b03831614156110ae5760405162461bcd60e51b815260206004820152602960248201527f455243313135353a2073657474696e6720617070726f76616c20737461747573604482015268103337b91039b2b63360b91b60648201526084016104b8565b3360008181526098602090815260408083206001600160a01b03871680855290835292819020805460ff191686151590811790915590519081529192917f17307eab39ab6107e8899845ad3d59bd9653f200f220920489ca2b5937696c31910160405180910390a35050565b60008181526101fa60209081526040808320805482518185028101850190935280835260609492939192909184018215610fcf57600084815260209081902060408051808201909152908401546001600160a01b0381168252600160a01b90046001600160601b031681830152825260019092019101610f80565b336001600160a01b038316146111db5760405162461bcd60e51b815260206004820152600b60248201526a1b9bdd08185b1b1bddd95960aa1b60448201526064016104b8565b61067d838383611e31565b6102308054610505906146c7565b60006112008383611ef3565b9392505050565b6001600160a01b03841661122d5760405162461bcd60e51b81526004016104b890614828565b6001600160a01b038516331480611249575061124985336111f4565b6112655760405162461bcd60e51b81526004016104b890614892565b3361128581878761127588611f43565b61127e88611f43565b5050505050565b6112cc836040518060600160405280602a8152602001614d71602a913960008781526097602090815260408083206001600160a01b038d1684529091529020549190611b14565b60008581526097602090815260408083206001600160a01b038b811685529252808320939093558716815220546113039084611b40565b60008581526097602090815260408083206001600160a01b038a81168086529184529382902094909455805188815291820187905289831692851691600080516020614cbf833981519152910160405180910390a4610a64818787878787611f8e565b61136e611cb7565b6001600160a01b0381166113d35760405162461bcd60e51b815260206004820152602660248201527f4f776e61626c653a206e6577206f776e657220697320746865207a65726f206160448201526564647265737360d01b60648201526084016104b8565b6113dc81611ddf565b50565b6000806113ec8484611d29565b9092509050811561140257611402858584612058565b801561127e5760408051858152602081018390526001600160a01b0387169133917f5110a21391aa55386de41fe7a3e3dffb40132d38d629a113a7f4afff251b1a019101610e94565b600061145b848660000151610450565b905081811561149e5782808310156114705750815b611490868689600001518460405180602001604052806000815250611207565b61149a81856148db565b9150505b8015610a6457610a64868583610591565b60006104e68261209b565b600081815261012e60205260408120805460609291906114d9906146c7565b80601f0160208091040260200160405190810160405280929190818152602001828054611505906146c7565b80156115525780601f1061152757610100808354040283529160200191611552565b820191906000526020600020905b81548152906001019060200180831161153557829003601f168201915b505050505090506000611563610ea3565b9050805160001415611576575092915050565b81511561158f57611587818361213d565b949350505050565b806115998561221a565b6040516020016115aa9291906148f2565b60405160208183030381529060405292505050919050565b825160601c33808214806115db57506115db82826111f4565b6116385760405162461bcd60e51b815260206004820152602860248201527f455243313135353a207472616e736665722063616c6c6572206973206e6f7420604482015267185c1c1c9bdd995960c21b60648201526084016104b8565b6000831161167b5760405162461bcd60e51b815260206004820152601060248201526f185b5bdd5b9d081a5b98dbdc9c9958dd60821b60448201526064016104b8565b845160009081526101fc60205260409020546118ca5784606001516000815181106116a8576116a8614702565b6020026020010151600001516001600160a01b0316826001600160a01b0316146117085760405162461bcd60e51b81526020600482015260116024820152701d1bdad95b9259081a5b98dbdc9c9958dd607a1b60448201526064016104b8565b600085604001511161174f5760405162461bcd60e51b815260206004820152601060248201526f1cdd5c1c1b1e481a5b98dbdc9c9958dd60821b60448201526064016104b8565b8460a0015151856060015151146117a85760405162461bcd60e51b815260206004820181905260248201527f63726561746f7273206e6f7420657175616c20746f207369676e61747572657360448201526064016104b8565b60006117b386612317565b905060005b86606001515181101561187f576000876060015182815181106117dd576117dd614702565b6020026020010151600001519050836001600160a01b0316816001600160a01b03161461186c576118446040518060400160405280602081526020017f76616c69646174696e672c2063726561746f723a25732073656e6465723a2573815250828661253d565b61186c81848a60a00151858151811061185f5761185f614702565b6020026020010151612584565b50806118778161477c565b9150506117b8565b506118928660000151876040015161258f565b6118a4866000015187608001516125fa565b6118b686600001518760600151612816565b6118c886600001518760200151612a75565b505b6118e98486600001518560405180602001604052806000815250612ada565b836001600160a01b0316826001600160a01b03161461199557845160408051918252602082018590526001600160a01b038085169260009291851691600080516020614cbf833981519152910160405180910390a4836001600160a01b0316826001600160a01b0316826001600160a01b0316600080516020614cbf833981519152886000015187604051611988929190918252602082015260400190565b60405180910390a461127e565b845160408051918252602082018590526001600160a01b038087169260009291851691600080516020614cbf833981519152910160405180910390a45050505050565b600054610100900460ff16158080156119f85750600054600160ff909116105b80611a125750303b158015611a12575060005460ff166001145b611a2e5760405162461bcd60e51b81526004016104b890614921565b6000805460ff191660011790558015611a51576000805461ff0019166101001790555b611a59612aec565b611a61612b1c565b611a69612bc5565b611a71612bc5565b611a79612bec565b611a9160405180602001604052806000815250612ca8565b611a9a84612d5a565b611aa2612b1c565b611aaa612b1c565b611ab48787612e18565b611abc612b1c565b611ac585611d11565b611ad0836001612ef3565b611adb826001612ef3565b8015611b0b576000805461ff001916905560405160018152600080516020614d9b83398151915290602001610cce565b50505050505050565b60008184841115611b385760405162461bcd60e51b81526004016104b89190613c18565b505050900390565b60006112008284614764565b6001600160a01b0384163b15610a645760405163bc197c8160e01b81526001600160a01b0385169063bc197c8190611b90908990899088908890889060040161496f565b602060405180830381600087803b158015611baa57600080fd5b505af1925050508015611bda575060408051601f3d908101601f19168201909252611bd7918101906149cd565b60015b611c8757611be66149ea565b806308c379a01415611c205750611bfb614a06565b80611c065750611c22565b8060405162461bcd60e51b81526004016104b89190613c18565b505b60405162461bcd60e51b815260206004820152603460248201527f455243313135353a207472616e7366657220746f206e6f6e20455243313135356044820152732932b1b2b4bb32b91034b6b83632b6b2b73a32b960611b60648201526084016104b8565b6001600160e01b0319811663bc197c8160e01b14611b0b5760405162461bcd60e51b81526004016104b890614a8f565b6033546001600160a01b03163314610f485760405162461bcd60e51b815260206004820181905260248201527f4f776e61626c653a2063616c6c6572206973206e6f7420746865206f776e657260448201526064016104b8565b8051611d259061012f906020840190613aa3565b5050565b806000606084901c33811415611d945760008581526101fc60205260409020548492508015611d7c5760008681526101fd6020526040812054611d6c90836148db565b905080861115611d7a578093505b505b611d868684612f4b565b611d9083866148db565b9350505b509250929050565b6001600160a01b038316331480611db85750611db883336111f4565b611dd45760405162461bcd60e51b81526004016104b890614892565b61067d838383612f73565b603380546001600160a01b038381166001600160a01b0319831681179093556040519116919082907f8be0079c531659141344cd1fd0a4f28419497f9722a3daafe3b4186f6b6457e090600090a35050565b60008381526101fa6020526040812054905b8181101561127e5760008581526101fa6020526040902080546001600160a01b038616919083908110611e7857611e78614702565b6000918252602090912001546001600160a01b03161415611ee15760008581526101fa60205260409020805484919083908110611eb757611eb7614702565b600091825260209091200180546001600160a01b0319166001600160a01b03929092169190911790555b80611eeb8161477c565b915050611e43565b6001600160a01b038116600090815260c9602052604081205460ff168061120057506001600160a01b0380841660009081526098602090815260408083209386168352929052205460ff16611200565b60408051600180825281830190925260609160009190602080830190803683370190505090508281600081518110611f7d57611f7d614702565b602090810291909101015292915050565b6001600160a01b0384163b15610a645760405163f23a6e6160e01b81526001600160a01b0385169063f23a6e6190611fd29089908990889088908890600401614ad7565b602060405180830381600087803b158015611fec57600080fd5b505af192505050801561201c575060408051601f3d908101601f19168201909252612019918101906149cd565b60015b61202857611be66149ea565b6001600160e01b0319811663f23a6e6160e01b14611b0b5760405162461bcd60e51b81526004016104b890614a8f565b6001600160a01b038316331480612074575061207483336111f4565b6120905760405162461bcd60e51b81526004016104b890614892565b61067d838383613131565b60006001600160e01b03198216636db15a0f60e01b14806120cc57506001600160e01b0319821663656cb66560e11b145b806120e757506001600160e01b0319821663152a902d60e11b145b8061210257506001600160e01b031982166301ffc9a760e01b145b8061211d57506001600160e01b03198216636cdb3d1360e11b145b806104e657506001600160e01b031982166303a24d0760e21b1492915050565b805182516060918491849110156121795784846040516020016121619291906148f2565b604051602081830303815290604052925050506104e6565b60005b82518110156122105782818151811061219757612197614702565b602001015160f81c60f81b6001600160f81b0319168282815181106121be576121be614702565b01602001516001600160f81b031916146121fe5785856040516020016121e59291906148f2565b60405160208183030381529060405293505050506104e6565b806122088161477c565b91505061217c565b5092949350505050565b60608161223e5750506040805180820190915260018152600360fc1b602082015290565b8160005b811561226857806122528161477c565b91506122619050600a836147cc565b9150612242565b6000816001600160401b0381111561228257612282613c44565b6040519080825280601f01601f1916602001820160405280156122ac576020820181803683370190505b5090505b8415611587576122c16001836148db565b91506122ce600a86614b1c565b6122d9906030614764565b60f81b8183815181106122ee576122ee614702565b60200101906001600160f81b031916908160001a905350612310600a866147cc565b94506122b0565b6000808260800151516001600160401b0381111561233757612337613c44565b604051908082528060200260200182016040528015612360578160200160208202803683370190505b50905060005b8360800151518110156123c8576123998460800151828151811061238c5761238c614702565b602002602001015161321d565b8282815181106123ab576123ab614702565b6020908102919091010152806123c08161477c565b915050612366565b5060008360600151516001600160401b038111156123e8576123e8613c44565b604051908082528060200260200182016040528015612411578160200160208202803683370190505b50905060005b84606001515181101561246c5761243d8560600151828151811061238c5761238c614702565b82828151811061244f5761244f614702565b6020908102919091010152806124648161477c565b915050612417565b507ffb988707ebb338694f318760b0fd5cfe756d00a2ade251fda110b80c336a3c7f84600001518560400151866020015180519060200120846040516020016124b59190614b30565b60405160208183030381529060405280519060200120866040516020016124dc9190614b30565b60408051601f198184030181528282528051602091820120908301979097528101949094526060840192909252608083015260a082015260c081019190915260e0016040516020818303038152906040528051906020012092505050919050565b61067d83838360405160240161255593929190614b66565b60408051601f198184030181529190526020810180516001600160e01b03166307e763af60e51b179052613299565b61067d8383836132ba565b60008281526101fc6020526040902054156125a957600080fd5b60008281526101fc602090815260409182902083905581518481529081018390527f5e2aa66efd74cce82b21852e317e5490d9ecc9e6bb953ae24d90851258cc2f5c91015b60405180910390a15050565b6000805b82518110156127ac5760006001600160a01b031683828151811061262457612624614702565b6020026020010151600001516001600160a01b031614156126875760405162461bcd60e51b815260206004820152601b60248201527f526563697069656e742073686f756c642062652070726573656e74000000000060448201526064016104b8565b82818151811061269957612699614702565b6020026020010151602001516001600160601b0316600014156126fe5760405162461bcd60e51b815260206004820181905260248201527f526f79616c74792076616c75652073686f756c6420626520706f73697469766560448201526064016104b8565b82818151811061271057612710614702565b6020026020010151602001516001600160601b0316826127309190614764565b91506101fa600085815260200190815260200160002083828151811061275857612758614702565b6020908102919091018101518254600181018455600093845292829020815191909201516001600160601b0316600160a01b026001600160a01b0390911617910155806127a48161477c565b9150506125fe565b50612710811061280c5760405162461bcd60e51b815260206004820152602560248201527f526f79616c747920746f74616c2076616c75652073686f756c64206265203c20604482015264031303030360dc1b60648201526084016104b8565b61067d83836134bf565b60008281526101fb6020526040812090805b83518110156129cd5760006001600160a01b031684828151811061284e5761284e614702565b6020026020010151600001516001600160a01b031614156128b15760405162461bcd60e51b815260206004820152601960248201527f4163636f756e742073686f756c642062652070726573656e740000000000000060448201526064016104b8565b8381815181106128c3576128c3614702565b6020026020010151602001516001600160601b0316600014156129285760405162461bcd60e51b815260206004820181905260248201527f43726561746f722073686172652073686f756c6420626520706f73697469766560448201526064016104b8565b8284828151811061293b5761293b614702565b6020908102919091018101518254600181018455600093845292829020815191909201516001600160601b0316600160a01b026001600160a01b039091161791015583516129b99085908390811061299557612995614702565b6020026020010151602001516001600160601b031683611b4090919063ffffffff16565b9150806129c58161477c565b915050612828565b508061271014612a365760405162461bcd60e51b815260206004820152602e60248201527f746f74616c20616d6f756e74206f662063726561746f7273207368617265207360448201526d0686f756c642062652031303030360941b60648201526084016104b8565b7f841ffb90d4cabdd1f16034f3fa831d79060febbb8167bdd54a49269365bdf78f8484604051612a67929190614b99565b60405180910390a150505050565b600082815261012e602090815260409091208251612a9592840190613aa3565b50817f6bb7ff708619ba0610cba295a58592e0451dee2622938c8755667688daf3529b612ac1846114ba565b604051612ace9190613c18565b60405180910390a25050565b612ae6848484846134f0565b50505050565b600054610100900460ff16612b135760405162461bcd60e51b81526004016104b890614bb2565b610f4833611ddf565b600054610100900460ff1615808015612b3c5750600054600160ff909116105b80612b565750303b158015612b56575060005460ff166001145b612b725760405162461bcd60e51b81526004016104b890614921565b6000805460ff191660011790558015612b95576000805461ff0019166101001790555b80156113dc576000805461ff001916905560405160018152600080516020614d9b83398151915290602001610c2b565b600054610100900460ff16610f485760405162461bcd60e51b81526004016104b890614bb2565b600054610100900460ff1615808015612c0c5750600054600160ff909116105b80612c265750303b158015612c26575060005460ff166001145b612c425760405162461bcd60e51b81526004016104b890614921565b6000805460ff191660011790558015612c65576000805461ff0019166101001790555b612b95604051806040016040528060088152602001674d696e743131353560c01b815250604051806040016040528060018152602001603160f81b81525061364e565b600054610100900460ff1615808015612cc85750600054600160ff909116105b80612ce25750303b158015612ce2575060005460ff166001145b612cfe5760405162461bcd60e51b81526004016104b890614921565b6000805460ff191660011790558015612d21576000805461ff0019166101001790555b612d2a82613691565b8015611d25576000805461ff001916905560405160018152600080516020614d9b833981519152906020016125ee565b600054610100900460ff1615808015612d7a5750600054600160ff909116105b80612d945750303b158015612d94575060005460ff166001145b612db05760405162461bcd60e51b81526004016104b890614921565b6000805460ff191660011790558015612dd3576000805461ff0019166101001790555b8151612de790610230906020850190613aa3565b508015611d25576000805461ff001916905560405160018152600080516020614d9b833981519152906020016125ee565b600054610100900460ff1615808015612e385750600054600160ff909116105b80612e525750303b158015612e52575060005460ff166001145b612e6e5760405162461bcd60e51b81526004016104b890614921565b6000805460ff191660011790558015612e91576000805461ff0019166101001790555b8251612ea590610262906020860190613aa3565b508151612eba90610263906020850190613aa3565b50801561067d576000805461ff001916905560405160018152600080516020614d9b8339815191529060200160405180910390a1505050565b6001600160a01b038216600081815260c96020908152604091829020805460ff191685151590811790915591519182527f270dbb8ba4292910ae92862466486be25c355c837270a3d8824b36a8bc7c653b9101612ace565b60008281526101fd602052604081208054839290612f6a908490614764565b90915550505050565b6001600160a01b038316612f995760405162461bcd60e51b81526004016104b890614bfd565b8051825114612fba5760405162461bcd60e51b81526004016104b8906147e0565b604080516020810190915260009081905233905b83518110156130d25761306c838281518110612fec57612fec614702565b6020026020010151604051806060016040528060248152602001614d03602491396097600088868151811061302357613023614702565b602002602001015181526020019081526020016000206000896001600160a01b03166001600160a01b0316815260200190815260200160002054611b149092919063ffffffff16565b6097600086848151811061308257613082614702565b602002602001015181526020019081526020016000206000876001600160a01b03166001600160a01b031681526020019081526020016000208190555080806130ca9061477c565b915050612fce565b5060006001600160a01b0316846001600160a01b0316826001600160a01b03167f4a39dc06d4c0dbc64b70af90fd698a233a518aa5d07e595d983b8c0526c8f7fb868660405161312392919061486d565b60405180910390a450505050565b6001600160a01b0383166131575760405162461bcd60e51b81526004016104b890614bfd565b336131878185600061316887611f43565b61317187611f43565b5050604080516020810190915260009052505050565b6131ce82604051806060016040528060248152602001614d036024913960008681526097602090815260408083206001600160a01b038b1684529091529020549190611b14565b60008481526097602090815260408083206001600160a01b038981168086529184528285209590955581518881529283018790529293851691600080516020614cbf8339815191529101613123565b805160208083015160405160009361327c937f397e04204c1e1a60ee8724b71f8244e10ab5f2e9009854d80f602bda21b59ebb939192019283526001600160a01b039190911660208301526001600160601b0316604082015260600190565b604051602081830303815290604052805190602001209050919050565b80516a636f6e736f6c652e6c6f67602083016000808483855afa5050505050565b60006132c5836136a4565b90506000825160411415613301576132f4604051806060016040528060258152602001614d27602591396136f2565b6132fe8284613735565b90505b846001600160a01b0316816001600160a01b03161461127e5761333d604051806060016040528060408152602001614dbb60409139868361253d565b6001600160a01b0385163b156134535761336e604051806060016040528060248152602001614cdf602491396136f2565b604051630b135d3f60e11b808252906001600160a01b03871690631626ba7e9061339e9086908890600401614c40565b60206040518083038186803b1580156133b657600080fd5b505afa1580156133ca573d6000803e3d6000fd5b505050506040513d601f19601f820116820180604052508101906133ee91906149cd565b6001600160e01b031916146040518060400160405280601c81526020017f7369676e617475726520766572696669636174696f6e206572726f72000000008152509061344d5760405162461bcd60e51b81526004016104b89190613c18565b5061127e565b613474604051806060016040528060258152602001614d4c602591396136f2565b604080518082018252601c81527f7369676e617475726520766572696669636174696f6e206572726f72000000006020820152905162461bcd60e51b81526104b89190600401613c18565b7f3fa96d7b6bcbfe71ef171666d84db3cf52fa2d1c8afdb1cc8e486177f208b7df82826040516125ee929190614b99565b60008381526101fd602052604081205461350b908490611b40565b60008581526101fc60205260409020549091508111156135605760405162461bcd60e51b815260206004820152601060248201526f6d6f7265207468616e20737570706c7960801b60448201526064016104b8565b60008481526101fd602052604090208190556001600160a01b0385166135d25760405162461bcd60e51b815260206004820152602160248201527f455243313135353a206d696e7420746f20746865207a65726f206164647265736044820152607360f81b60648201526084016104b8565b336135ec816000886135e389611f43565b61127e89611f43565b60008581526097602090815260408083206001600160a01b038a1684529091529020546136199085611b40565b60008681526097602090815260408083206001600160a01b038b168452909152812091909155610a6490829088888888611f8e565b600054610100900460ff166136755760405162461bcd60e51b81526004016104b890614bb2565b8151602092830120815191909201206101629190915561016355565b8051611d25906099906020840190613aa3565b60006104e66136b16137b0565b8360405161190160f01b6020820152602281018390526042810182905260009060620160405160208183030381529060405280519060200120905092915050565b6113dc816040516024016137069190613c18565b60408051601f198184030181529190526020810180516001600160e01b031663104c13eb60e21b179052613299565b600081516041146137885760405162461bcd60e51b815260206004820152601f60248201527f45434453413a20696e76616c6964207369676e6174757265206c656e6774680060448201526064016104b8565b60208201516040830151606084015160001a6137a686828585613832565b9695505050505050565b600061382d7f8b73c3c69bb8fe3d512ecc4cf759cc79239f7b179b0ffacaa9a75d522b39400f6137e06101625490565b610163546040805160208101859052908101839052606081018290524660808201523060a082015260009060c0016040516020818303038152906040528051906020012090509392505050565b905090565b60007f7fffffffffffffffffffffffffffffff5d576e7357a4501ddfe92f46681b20a08211156138af5760405162461bcd60e51b815260206004820152602260248201527f45434453413a20696e76616c6964207369676e6174757265202773272076616c604482015261756560f01b60648201526084016104b8565b6000601e8560ff161115613978576138c8600486614c59565b60ff16601b14806138e657506138df600486614c59565b60ff16601c145b6139025760405162461bcd60e51b81526004016104b890614c7c565b600161390d87613a68565b613918600488614c59565b6040805160008152602081018083529390935260ff90911690820152606081018690526080810185905260a0016020604051602081039080840390855afa158015613967573d6000803e3d6000fd5b505050602060405103519050613a09565b8460ff16601b148061398d57508460ff16601c145b6139a95760405162461bcd60e51b81526004016104b890614c7c565b60408051600081526020810180835288905260ff871691810191909152606081018590526080810184905260019060a0016020604051602081039080840390855afa1580156139fc573d6000803e3d6000fd5b5050506020604051035190505b6001600160a01b038116613a5f5760405162461bcd60e51b815260206004820152601860248201527f45434453413a20696e76616c6964207369676e6174757265000000000000000060448201526064016104b8565b95945050505050565b6040517f19457468657265756d205369676e6564204d6573736167653a0a3332000000006020820152603c8101829052600090605c0161327c565b828054613aaf906146c7565b90600052602060002090601f016020900481019282613ad15760008555613b17565b82601f10613aea57805160ff1916838001178555613b17565b82800160010185558215613b17579182015b82811115613b17578251825591602001919060010190613afc565b50613b23929150613b27565b5090565b5b80821115613b235760008155600101613b28565b6001600160a01b03811681146113dc57600080fd5b8035613b5c81613b3c565b919050565b60008060408385031215613b7457600080fd5b8235613b7f81613b3c565b946020939093013593505050565b6001600160e01b0319811681146113dc57600080fd5b600060208284031215613bb557600080fd5b813561120081613b8d565b60005b83811015613bdb578181015183820152602001613bc3565b83811115612ae65750506000910152565b60008151808452613c04816020860160208601613bc0565b601f01601f19169290920160200192915050565b6020815260006112006020830184613bec565b600060208284031215613c3d57600080fd5b5035919050565b634e487b7160e01b600052604160045260246000fd5b604081018181106001600160401b0382111715613c7957613c79613c44565b60405250565b601f8201601f191681016001600160401b0381118282101715613ca457613ca4613c44565b6040525050565b60405160c081016001600160401b0381118282101715613ccd57613ccd613c44565b60405290565b600082601f830112613ce457600080fd5b81356001600160401b03811115613cfd57613cfd613c44565b604051613d14601f8301601f191660200182613c7f565b818152846020838601011115613d2957600080fd5b816020850160208301376000918101602001919091529392505050565b60006001600160401b03821115613d5f57613d5f613c44565b5060051b60200190565b600082601f830112613d7a57600080fd5b81356020613d8782613d46565b60408051613d958382613c7f565b84815260069490941b8601830193838101925087851115613db557600080fd5b8387015b85811015613e145782818a031215613dd15760008081fd5b8251613ddc81613c5a565b8135613de781613b3c565b8152818601356001600160601b0381168114613e035760008081fd5b818701528452928401928201613db9565b50979650505050505050565b600082601f830112613e3157600080fd5b81356020613e3e82613d46565b604051613e4b8282613c7f565b83815260059390931b8501820192828101915086841115613e6b57600080fd5b8286015b84811015613eaa5780356001600160401b03811115613e8e5760008081fd5b613e9c8986838b0101613cd3565b845250918301918301613e6f565b509695505050505050565b600060c08284031215613ec757600080fd5b613ecf613cab565b90508135815260208201356001600160401b0380821115613eef57600080fd5b613efb85838601613cd3565b6020840152604084013560408401526060840135915080821115613f1e57600080fd5b613f2a85838601613d69565b60608401526080840135915080821115613f4357600080fd5b613f4f85838601613d69565b608084015260a0840135915080821115613f6857600080fd5b50613f7584828501613e20565b60a08301525092915050565b600080600060608486031215613f9657600080fd5b83356001600160401b03811115613fac57600080fd5b613fb886828701613eb5565b9350506020840135613fc981613b3c565b929592945050506040919091013590565b60008060008060008060c08789031215613ff357600080fd5b86356001600160401b038082111561400a57600080fd5b6140168a838b01613cd3565b9750602089013591508082111561402c57600080fd5b6140388a838b01613cd3565b9650604089013591508082111561404e57600080fd5b61405a8a838b01613cd3565b9550606089013591508082111561407057600080fd5b5061407d89828a01613cd3565b93505061408c60808801613b51565b915061409a60a08801613b51565b90509295509295509295565b600080604083850312156140b957600080fd5b50508035926020909101359150565b600082601f8301126140d957600080fd5b813560206140e682613d46565b6040516140f38282613c7f565b83815260059390931b850182019282810191508684111561411357600080fd5b8286015b84811015613eaa5780358352918301918301614117565b600080600080600060a0868803121561414657600080fd5b853561415181613b3c565b9450602086013561416181613b3c565b935060408601356001600160401b038082111561417d57600080fd5b61418989838a016140c8565b9450606088013591508082111561419f57600080fd5b6141ab89838a016140c8565b935060808801359150808211156141c157600080fd5b506141ce88828901613cd3565b9150509295509295909350565b6000602082840312156141ed57600080fd5b813561120081613b3c565b600082601f83011261420957600080fd5b8135602061421682613d46565b6040516142238282613c7f565b83815260059390931b850182019282810191508684111561424357600080fd5b8286015b84811015613eaa57803561425a81613b3c565b8352918301918301614247565b6000806040838503121561427a57600080fd5b82356001600160401b038082111561429157600080fd5b61429d868387016141f8565b935060208501359150808211156142b357600080fd5b506142c0858286016140c8565b9150509250929050565b600081518084526020808501945080840160005b838110156142fa578151875295820195908201906001016142de565b509495945050505050565b60208152600061120060208301846142ca565b60006020828403121561432a57600080fd5b81356001600160401b0381111561434057600080fd5b61158784828501613cd3565b600080600080600080600060e0888a03121561436757600080fd5b87356001600160401b038082111561437e57600080fd5b61438a8b838c01613cd3565b985060208a01359150808211156143a057600080fd5b6143ac8b838c01613cd3565b975060408a01359150808211156143c257600080fd5b6143ce8b838c01613cd3565b965060608a01359150808211156143e457600080fd5b6143f08b838c01613cd3565b955060808a013591508082111561440657600080fd5b506144138a828b016141f8565b93505061442260a08901613b51565b915061443060c08901613b51565b905092959891949750929550565b60008060006060848603121561445357600080fd5b833561445e81613b3c565b925060208401356001600160401b038082111561447a57600080fd5b614486878388016140c8565b9350604086013591508082111561449c57600080fd5b506144a9868287016140c8565b9150509250925092565b600081518084526020808501945080840160005b838110156142fa57815180516001600160a01b031688528301516001600160601b031683880152604090960195908201906001016144c7565b60208152600061120060208301846144b3565b6000806040838503121561452657600080fd5b823561453181613b3c565b91506020830135801515811461454657600080fd5b809150509250929050565b60008060006060848603121561456657600080fd5b83359250602084013561457881613b3c565b9150604084013561458881613b3c565b809150509250925092565b600080604083850312156145a657600080fd5b82356145b181613b3c565b9150602083013561454681613b3c565b600080600080600060a086880312156145d957600080fd5b85356145e481613b3c565b945060208601356145f481613b3c565b9350604086013592506060860135915060808601356001600160401b0381111561461d57600080fd5b6141ce88828901613cd3565b60008060006060848603121561463e57600080fd5b833561464981613b3c565b95602085013595506040909401359392505050565b6000806000806080858703121561467457600080fd5b84356001600160401b0381111561468a57600080fd5b61469687828801613eb5565b94505060208501356146a781613b3c565b925060408501356146b781613b3c565b9396929550929360600135925050565b600181811c908216806146db57607f821691505b602082108114156146fc57634e487b7160e01b600052602260045260246000fd5b50919050565b634e487b7160e01b600052603260045260246000fd5b6001600160a01b038416815260606020820181905260009061473c90830185613bec565b82810360408401526137a68185613bec565b634e487b7160e01b600052601160045260246000fd5b600082198211156147775761477761474e565b500190565b60006000198214156147905761479061474e565b5060010190565b60008160001904831182151516156147b1576147b161474e565b500290565b634e487b7160e01b600052601260045260246000fd5b6000826147db576147db6147b6565b500490565b60208082526028908201527f455243313135353a2069647320616e6420616d6f756e7473206c656e677468206040820152670dad2e6dac2e8c6d60c31b606082015260800190565b60208082526025908201527f455243313135353a207472616e7366657220746f20746865207a65726f206164604082015264647265737360d81b606082015260800190565b60408152600061488060408301856142ca565b8281036020840152613a5f81856142ca565b60208082526029908201527f455243313135353a2063616c6c6572206973206e6f74206f776e6572206e6f7260408201526808185c1c1c9bdd995960ba1b606082015260800190565b6000828210156148ed576148ed61474e565b500390565b60008351614904818460208801613bc0565b835190830190614918818360208801613bc0565b01949350505050565b6020808252602e908201527f496e697469616c697a61626c653a20636f6e747261637420697320616c72656160408201526d191e481a5b9a5d1a585b1a5e995960921b606082015260800190565b6001600160a01b0386811682528516602082015260a06040820181905260009061499b908301866142ca565b82810360608401526149ad81866142ca565b905082810360808401526149c18185613bec565b98975050505050505050565b6000602082840312156149df57600080fd5b815161120081613b8d565b600060033d1115614a035760046000803e5060005160e01c5b90565b600060443d1015614a145790565b6040516003193d81016004833e81513d6001600160401b038160248401118184111715614a4357505050505090565b8285019150815181811115614a5b5750505050505090565b843d8701016020828501011115614a755750505050505090565b614a8460208286010187613c7f565b509095945050505050565b60208082526028908201527f455243313135353a204552433131353552656365697665722072656a656374656040820152676420746f6b656e7360c01b606082015260800190565b6001600160a01b03868116825285166020820152604081018490526060810183905260a060808201819052600090614b1190830184613bec565b979650505050505050565b600082614b2b57614b2b6147b6565b500690565b815160009082906020808601845b83811015614b5a57815185529382019390820190600101614b3e565b50929695505050505050565b606081526000614b796060830186613bec565b6001600160a01b0394851660208401529290931660409091015292915050565b82815260406020820152600061158760408301846144b3565b6020808252602b908201527f496e697469616c697a61626c653a20636f6e7472616374206973206e6f74206960408201526a6e697469616c697a696e6760a81b606082015260800190565b60208082526023908201527f455243313135353a206275726e2066726f6d20746865207a65726f206164647260408201526265737360e81b606082015260800190565b8281526040602082015260006115876040830184613bec565b600060ff821660ff841680821015614c7357614c7361474e565b90039392505050565b60208082526022908201527f45434453413a20696e76616c6964207369676e6174757265202776272076616c604082015261756560f01b60608201526080019056fec3d58168c5ae7397731d063d5bbf3d657854427343f4c083240f7aacaa2d0f624552433132373156616c696461746f723a2073696e67657220697320636f6e7472616374455243313135353a206275726e20616d6f756e7420657863656564732062616c616e63654552433132373156616c696461746f723a207369676e6174757265206c656e6774682036354552433132373156616c696461746f723a207369676e6572206e6f7420636f6e7472616374455243313135353a20696e73756666696369656e742062616c616e636520666f72207472616e736665727f26b83ff96e1f2b6a682f133852f6798a09c465da95921460cefb38474024984552433132373156616c696461746f723a207369676e6174757265206e6f742066726f6d207369676e65722025732c207369676e657246726f6d536967202573a26469706673582212200ba4db2252b706171d86c6af667274ccad093075bd18d044d69a16b87dd0b9b264736f6c63430008090033",
  "linkReferences": {},
  "deployedLinkReferences": {}
}