{
  "_format": "hh-sol-artifact-1",
  "contractName": "VizualizeNft",
  "sourceName": "contracts/VizualizeNft.sol",
  "abi": [
    {
      "anonymous": false,
      "inputs": [
        {
          "indexed": true,
          "internalType": "address",
          "name": "account",
          "type": "address"
        },
        {
          "indexed": true,
          "internalType": "address",
          "name": "operator",
          "type": "address"
        },
        {
          "indexed": false,
          "internalType": "bool",
          "name": "approved",
          "type": "bool"
        }
      ],
      "name": "ApprovalForAll",
      "type": "event"
    },
    {
      "anonymous": false,
      "inputs": [
        {
          "indexed": false,
          "internalType": "string",
          "name": "newBaseURI",
          "type": "string"
        }
      ],
      "name": "BaseUriChanged",
      "type": "event"
    },
    {
      "anonymous": false,
      "inputs": [
        {
          "indexed": true,
          "internalType": "address",
          "name": "operator",
          "type": "address"
        },
        {
          "indexed": true,
          "internalType": "address",
          "name": "account",
          "type": "address"
        },
        {
          "indexed": false,
          "internalType": "uint256",
          "name": "id",
          "type": "uint256"
        },
        {
          "indexed": false,
          "internalType": "uint256",
          "name": "amount",
          "type": "uint256"
        }
      ],
      "name": "BurnLazy",
      "type": "event"
    },
    {
      "anonymous": false,
      "inputs": [
        {
          "indexed": true,
          "internalType": "address",
          "name": "operator",
          "type": "address"
        },
        {
          "indexed": true,
          "internalType": "address",
          "name": "account",
          "type": "address"
        },
        {
          "indexed": false,
          "internalType": "uint256[]",
          "name": "ids",
          "type": "uint256[]"
        },
        {
          "indexed": false,
          "internalType": "uint256[]",
          "name": "amounts",
          "type": "uint256[]"
        }
      ],
      "name": "BurnLazyBatch",
      "type": "event"
    },
    {
      "anonymous": false,
      "inputs": [
        {
          "indexed": false,
          "internalType": "address",
          "name": "owner",
          "type": "address"
        },
        {
          "indexed": false,
          "internalType": "string",
          "name": "name",
          "type": "string"
        },
        {
          "indexed": false,
          "internalType": "string",
          "name": "symbol",
          "type": "string"
        }
      ],
      "name": "CreateERC1155Rarible",
      "type": "event"
    },
    {
      "anonymous": false,
      "inputs": [
        {
          "indexed": false,
          "internalType": "address",
          "name": "owner",
          "type": "address"
        },
        {
          "indexed": false,
          "internalType": "string",
          "name": "name",
          "type": "string"
        },
        {
          "indexed": false,
          "internalType": "string",
          "name": "symbol",
          "type": "string"
        }
      ],
      "name": "CreateERC1155RaribleUser",
      "type": "event"
    },
    {
      "anonymous": false,
      "inputs": [
        {
          "indexed": false,
          "internalType": "uint256",
          "name": "tokenId",
          "type": "uint256"
        },
        {
          "components": [
            {
              "internalType": "address payable",
              "name": "account",
              "type": "address"
            },
            {
              "internalType": "uint96",
              "name": "value",
              "type": "uint96"
            }
          ],
          "indexed": false,
          "internalType": "struct LibPart.Part[]",
          "name": "creators",
          "type": "tuple[]"
        }
      ],
      "name": "Creators",
      "type": "event"
    },
    {
      "anonymous": false,
      "inputs": [
        {
          "indexed": true,
          "internalType": "address",
          "name": "operator",
          "type": "address"
        },
        {
          "indexed": false,
          "internalType": "bool",
          "name": "hasApproval",
          "type": "bool"
        }
      ],
      "name": "DefaultApproval",
      "type": "event"
    },
    {
      "anonymous": false,
      "inputs": [
        {
          "indexed": false,
          "internalType": "uint8",
          "name": "version",
          "type": "uint8"
        }
      ],
      "name": "Initialized",
      "type": "event"
    },
    {
      "anonymous": false,
      "inputs": [
        {
          "indexed": true,
          "internalType": "address",
          "name": "minter",
          "type": "address"
        },
        {
          "indexed": true,
          "internalType": "bool",
          "name": "status",
          "type": "bool"
        }
      ],
      "name": "MinterStatusChanged",
      "type": "event"
    },
    {
      "anonymous": false,
      "inputs": [
        {
          "indexed": true,
          "internalType": "address",
          "name": "previousOwner",
          "type": "address"
        },
        {
          "indexed": true,
          "internalType": "address",
          "name": "newOwner",
          "type": "address"
        }
      ],
      "name": "OwnershipTransferred",
      "type": "event"
    },
    {
      "anonymous": false,
      "inputs": [
        {
          "indexed": false,
          "internalType": "address",
          "name": "account",
          "type": "address"
        }
      ],
      "name": "Paused",
      "type": "event"
    },
    {
      "anonymous": false,
      "inputs": [
        {
          "indexed": false,
          "internalType": "uint256",
          "name": "tokenId",
          "type": "uint256"
        },
        {
          "components": [
            {
              "internalType": "address payable",
              "name": "account",
              "type": "address"
            },
            {
              "internalType": "uint96",
              "name": "value",
              "type": "uint96"
            }
          ],
          "indexed": false,
          "internalType": "struct LibPart.Part[]",
          "name": "royalties",
          "type": "tuple[]"
        }
      ],
      "name": "RoyaltiesSet",
      "type": "event"
    },
    {
      "anonymous": false,
      "inputs": [
        {
          "indexed": false,
          "internalType": "uint256",
          "name": "tokenId",
          "type": "uint256"
        },
        {
          "indexed": false,
          "internalType": "uint256",
          "name": "value",
          "type": "uint256"
        }
      ],
      "name": "Supply",
      "type": "event"
    },
    {
      "anonymous": false,
      "inputs": [
        {
          "indexed": true,
          "internalType": "address",
          "name": "operator",
          "type": "address"
        },
        {
          "indexed": true,
          "internalType": "address",
          "name": "from",
          "type": "address"
        },
        {
          "indexed": true,
          "internalType": "address",
          "name": "to",
          "type": "address"
        },
        {
          "indexed": false,
          "internalType": "uint256[]",
          "name": "ids",
          "type": "uint256[]"
        },
        {
          "indexed": false,
          "internalType": "uint256[]",
          "name": "values",
          "type": "uint256[]"
        }
      ],
      "name": "TransferBatch",
      "type": "event"
    },
    {
      "anonymous": false,
      "inputs": [
        {
          "indexed": true,
          "internalType": "address",
          "name": "operator",
          "type": "address"
        },
        {
          "indexed": true,
          "internalType": "address",
          "name": "from",
          "type": "address"
        },
        {
          "indexed": true,
          "internalType": "address",
          "name": "to",
          "type": "address"
        },
        {
          "indexed": false,
          "internalType": "uint256",
          "name": "id",
          "type": "uint256"
        },
        {
          "indexed": false,
          "internalType": "uint256",
          "name": "value",
          "type": "uint256"
        }
      ],
      "name": "TransferSingle",
      "type": "event"
    },
    {
      "anonymous": false,
      "inputs": [
        {
          "indexed": false,
          "internalType": "string",
          "name": "value",
          "type": "string"
        },
        {
          "indexed": true,
          "internalType": "uint256",
          "name": "id",
          "type": "uint256"
        }
      ],
      "name": "URI",
      "type": "event"
    },
    {
      "anonymous": false,
      "inputs": [
        {
          "indexed": false,
          "internalType": "address",
          "name": "account",
          "type": "address"
        }
      ],
      "name": "Unpaused",
      "type": "event"
    },
    {
      "inputs": [
        {
          "internalType": "string",
          "name": "_name",
          "type": "string"
        },
        {
          "internalType": "string",
          "name": "_symbol",
          "type": "string"
        },
        {
          "internalType": "string",
          "name": "baseURI",
          "type": "string"
        },
        {
          "internalType": "string",
          "name": "contractURI",
          "type": "string"
        },
        {
          "internalType": "address[]",
          "name": "operators",
          "type": "address[]"
        },
        {
          "internalType": "address",
          "name": "transferProxy",
          "type": "address"
        },
        {
          "internalType": "address",
          "name": "lazyTransferProxy",
          "type": "address"
        }
      ],
      "name": "__ERC1155RaribleUser_init",
      "outputs": [],
      "stateMutability": "nonpayable",
      "type": "function"
    },
    {
      "inputs": [
        {
          "internalType": "string",
          "name": "_name",
          "type": "string"
        },
        {
          "internalType": "string",
          "name": "_symbol",
          "type": "string"
        },
        {
          "internalType": "string",
          "name": "baseURI",
          "type": "string"
        },
        {
          "internalType": "string",
          "name": "contractURI",
          "type": "string"
        },
        {
          "internalType": "address",
          "name": "transferProxy",
          "type": "address"
        },
        {
          "internalType": "address",
          "name": "lazyTransferProxy",
          "type": "address"
        }
      ],
      "name": "__ERC1155Rarible_init",
      "outputs": [],
      "stateMutability": "nonpayable",
      "type": "function"
    },
    {
      "inputs": [
        {
          "internalType": "address",
          "name": "_minter",
          "type": "address"
        }
      ],
      "name": "addMinter",
      "outputs": [],
      "stateMutability": "nonpayable",
      "type": "function"
    },
    {
      "inputs": [
        {
          "internalType": "address",
          "name": "account",
          "type": "address"
        },
        {
          "internalType": "uint256",
          "name": "id",
          "type": "uint256"
        }
      ],
      "name": "balanceOf",
      "outputs": [
        {
          "internalType": "uint256",
          "name": "",
          "type": "uint256"
        }
      ],
      "stateMutability": "view",
      "type": "function"
    },
    {
      "inputs": [
        {
          "internalType": "address[]",
          "name": "accounts",
          "type": "address[]"
        },
        {
          "internalType": "uint256[]",
          "name": "ids",
          "type": "uint256[]"
        }
      ],
      "name": "balanceOfBatch",
      "outputs": [
        {
          "internalType": "uint256[]",
          "name": "",
          "type": "uint256[]"
        }
      ],
      "stateMutability": "view",
      "type": "function"
    },
    {
      "inputs": [],
      "name": "baseExtension",
      "outputs": [
        {
          "internalType": "string",
          "name": "",
          "type": "string"
        }
      ],
      "stateMutability": "view",
      "type": "function"
    },
    {
      "inputs": [],
      "name": "baseURI",
      "outputs": [
        {
          "internalType": "string",
          "name": "",
          "type": "string"
        }
      ],
      "stateMutability": "view",
      "type": "function"
    },
    {
      "inputs": [
        {
          "internalType": "address",
          "name": "account",
          "type": "address"
        },
        {
          "internalType": "uint256",
          "name": "id",
          "type": "uint256"
        },
        {
          "internalType": "uint256",
          "name": "amount",
          "type": "uint256"
        }
      ],
      "name": "burn",
      "outputs": [],
      "stateMutability": "nonpayable",
      "type": "function"
    },
    {
      "inputs": [
        {
          "internalType": "address",
          "name": "account",
          "type": "address"
        },
        {
          "internalType": "uint256[]",
          "name": "ids",
          "type": "uint256[]"
        },
        {
          "internalType": "uint256[]",
          "name": "amounts",
          "type": "uint256[]"
        }
      ],
      "name": "burnBatch",
      "outputs": [],
      "stateMutability": "nonpayable",
      "type": "function"
    },
    {
      "inputs": [],
      "name": "contractURI",
      "outputs": [
        {
          "internalType": "string",
          "name": "",
          "type": "string"
        }
      ],
      "stateMutability": "view",
      "type": "function"
    },
    {
      "inputs": [],
      "name": "cost",
      "outputs": [
        {
          "internalType": "uint256",
          "name": "",
          "type": "uint256"
        }
      ],
      "stateMutability": "view",
      "type": "function"
    },
    {
      "inputs": [
        {
          "internalType": "uint256",
          "name": "_id",
          "type": "uint256"
        }
      ],
      "name": "getCreators",
      "outputs": [
        {
          "components": [
            {
              "internalType": "address payable",
              "name": "account",
              "type": "address"
            },
            {
              "internalType": "uint96",
              "name": "value",
              "type": "uint96"
            }
          ],
          "internalType": "struct LibPart.Part[]",
          "name": "",
          "type": "tuple[]"
        }
      ],
      "stateMutability": "view",
      "type": "function"
    },
    {
      "inputs": [
        {
          "internalType": "uint256",
          "name": "id",
          "type": "uint256"
        }
      ],
      "name": "getRaribleV2Royalties",
      "outputs": [
        {
          "components": [
            {
              "internalType": "address payable",
              "name": "account",
              "type": "address"
            },
            {
              "internalType": "uint96",
              "name": "value",
              "type": "uint96"
            }
          ],
          "internalType": "struct LibPart.Part[]",
          "name": "",
          "type": "tuple[]"
        }
      ],
      "stateMutability": "view",
      "type": "function"
    },
    {
      "inputs": [
        {
          "internalType": "string",
          "name": "_name",
          "type": "string"
        },
        {
          "internalType": "string",
          "name": "_symbol",
          "type": "string"
        },
        {
          "internalType": "string",
          "name": "baseURI",
          "type": "string"
        },
        {
          "internalType": "string",
          "name": "contractURI",
          "type": "string"
        },
        {
          "internalType": "address[]",
          "name": "operators",
          "type": "address[]"
        },
        {
          "internalType": "address",
          "name": "transferProxy",
          "type": "address"
        },
        {
          "internalType": "address",
          "name": "lazyTransferProxy",
          "type": "address"
        }
      ],
      "name": "initialize",
      "outputs": [],
      "stateMutability": "nonpayable",
      "type": "function"
    },
    {
      "inputs": [
        {
          "internalType": "address",
          "name": "_owner",
          "type": "address"
        },
        {
          "internalType": "address",
          "name": "_operator",
          "type": "address"
        }
      ],
      "name": "isApprovedForAll",
      "outputs": [
        {
          "internalType": "bool",
          "name": "",
          "type": "bool"
        }
      ],
      "stateMutability": "view",
      "type": "function"
    },
    {
      "inputs": [
        {
          "internalType": "address",
          "name": "account",
          "type": "address"
        }
      ],
      "name": "isMinter",
      "outputs": [
        {
          "internalType": "bool",
          "name": "",
          "type": "bool"
        }
      ],
      "stateMutability": "view",
      "type": "function"
    },
    {
      "inputs": [],
      "name": "maxMintAmount",
      "outputs": [
        {
          "internalType": "uint256",
          "name": "",
          "type": "uint256"
        }
      ],
      "stateMutability": "view",
      "type": "function"
    },
    {
      "inputs": [],
      "name": "maxSupply",
      "outputs": [
        {
          "internalType": "uint256",
          "name": "",
          "type": "uint256"
        }
      ],
      "stateMutability": "view",
      "type": "function"
    },
    {
      "inputs": [
        {
          "components": [
            {
              "internalType": "uint256",
              "name": "tokenId",
              "type": "uint256"
            },
            {
              "internalType": "string",
              "name": "tokenURI",
              "type": "string"
            },
            {
              "internalType": "uint256",
              "name": "supply",
              "type": "uint256"
            },
            {
              "components": [
                {
                  "internalType": "address payable",
                  "name": "account",
                  "type": "address"
                },
                {
                  "internalType": "uint96",
                  "name": "value",
                  "type": "uint96"
                }
              ],
              "internalType": "struct LibPart.Part[]",
              "name": "creators",
              "type": "tuple[]"
            },
            {
              "components": [
                {
                  "internalType": "address payable",
                  "name": "account",
                  "type": "address"
                },
                {
                  "internalType": "uint96",
                  "name": "value",
                  "type": "uint96"
                }
              ],
              "internalType": "struct LibPart.Part[]",
              "name": "royalties",
              "type": "tuple[]"
            },
            {
              "internalType": "bytes[]",
              "name": "signatures",
              "type": "bytes[]"
            }
          ],
          "internalType": "struct LibERC1155LazyMint.Mint1155Data",
          "name": "data",
          "type": "tuple"
        },
        {
          "internalType": "address",
          "name": "to",
          "type": "address"
        },
        {
          "internalType": "uint256",
          "name": "_amount",
          "type": "uint256"
        }
      ],
      "name": "mintAndTransfer",
      "outputs": [],
      "stateMutability": "nonpayable",
      "type": "function"
    },
    {
      "inputs": [],
      "name": "name",
      "outputs": [
        {
          "internalType": "string",
          "name": "",
          "type": "string"
        }
      ],
      "stateMutability": "view",
      "type": "function"
    },
    {
      "inputs": [],
      "name": "owner",
      "outputs": [
        {
          "internalType": "address",
          "name": "",
          "type": "address"
        }
      ],
      "stateMutability": "view",
      "type": "function"
    },
    {
      "inputs": [
        {
          "internalType": "bool",
          "name": "state",
          "type": "bool"
        }
      ],
      "name": "pause",
      "outputs": [],
      "stateMutability": "nonpayable",
      "type": "function"
    },
    {
      "inputs": [],
      "name": "paused",
      "outputs": [
        {
          "internalType": "bool",
          "name": "",
          "type": "bool"
        }
      ],
      "stateMutability": "view",
      "type": "function"
    },
    {
      "inputs": [
        {
          "internalType": "address",
          "name": "_minter",
          "type": "address"
        }
      ],
      "name": "removeMinter",
      "outputs": [],
      "stateMutability": "nonpayable",
      "type": "function"
    },
    {
      "inputs": [],
      "name": "renounceOwnership",
      "outputs": [],
      "stateMutability": "nonpayable",
      "type": "function"
    },
    {
      "inputs": [
        {
          "internalType": "uint256",
          "name": "id",
          "type": "uint256"
        },
        {
          "internalType": "uint256",
          "name": "_salePrice",
          "type": "uint256"
        }
      ],
      "name": "royaltyInfo",
      "outputs": [
        {
          "internalType": "address",
          "name": "receiver",
          "type": "address"
        },
        {
          "internalType": "uint256",
          "name": "royaltyAmount",
          "type": "uint256"
        }
      ],
      "stateMutability": "view",
      "type": "function"
    },
    {
      "inputs": [
        {
          "internalType": "address",
          "name": "from",
          "type": "address"
        },
        {
          "internalType": "address",
          "name": "to",
          "type": "address"
        },
        {
          "internalType": "uint256[]",
          "name": "ids",
          "type": "uint256[]"
        },
        {
          "internalType": "uint256[]",
          "name": "amounts",
          "type": "uint256[]"
        },
        {
          "internalType": "bytes",
          "name": "data",
          "type": "bytes"
        }
      ],
      "name": "safeBatchTransferFrom",
      "outputs": [],
      "stateMutability": "nonpayable",
      "type": "function"
    },
    {
      "inputs": [
        {
          "internalType": "address",
          "name": "from",
          "type": "address"
        },
        {
          "internalType": "address",
          "name": "to",
          "type": "address"
        },
        {
          "internalType": "uint256",
          "name": "id",
          "type": "uint256"
        },
        {
          "internalType": "uint256",
          "name": "amount",
          "type": "uint256"
        },
        {
          "internalType": "bytes",
          "name": "data",
          "type": "bytes"
        }
      ],
      "name": "safeTransferFrom",
      "outputs": [],
      "stateMutability": "nonpayable",
      "type": "function"
    },
    {
      "inputs": [
        {
          "internalType": "address",
          "name": "operator",
          "type": "address"
        },
        {
          "internalType": "bool",
          "name": "approved",
          "type": "bool"
        }
      ],
      "name": "setApprovalForAll",
      "outputs": [],
      "stateMutability": "nonpayable",
      "type": "function"
    },
    {
      "inputs": [
        {
          "internalType": "string",
          "name": "newBaseURI",
          "type": "string"
        }
      ],
      "name": "setBaseURI",
      "outputs": [],
      "stateMutability": "nonpayable",
      "type": "function"
    },
    {
      "inputs": [
        {
          "internalType": "string",
          "name": "newUri",
          "type": "string"
        }
      ],
      "name": "setContractURI",
      "outputs": [],
      "stateMutability": "nonpayable",
      "type": "function"
    },
    {
      "inputs": [
        {
          "internalType": "string",
          "name": "newName",
          "type": "string"
        }
      ],
      "name": "setName",
      "outputs": [],
      "stateMutability": "nonpayable",
      "type": "function"
    },
    {
      "inputs": [
        {
          "internalType": "string",
          "name": "newSymbol",
          "type": "string"
        }
      ],
      "name": "setSymbol",
      "outputs": [],
      "stateMutability": "nonpayable",
      "type": "function"
    },
    {
      "inputs": [
        {
          "internalType": "uint256",
          "name": "tokenId",
          "type": "uint256"
        },
        {
          "internalType": "string",
          "name": "newURI",
          "type": "string"
        }
      ],
      "name": "setTokenURI",
      "outputs": [],
      "stateMutability": "nonpayable",
      "type": "function"
    },
    {
      "inputs": [
        {
          "internalType": "bytes4",
          "name": "interfaceId",
          "type": "bytes4"
        }
      ],
      "name": "supportsInterface",
      "outputs": [
        {
          "internalType": "bool",
          "name": "",
          "type": "bool"
        }
      ],
      "stateMutability": "view",
      "type": "function"
    },
    {
      "inputs": [],
      "name": "symbol",
      "outputs": [
        {
          "internalType": "string",
          "name": "",
          "type": "string"
        }
      ],
      "stateMutability": "view",
      "type": "function"
    },
    {
      "inputs": [
        {
          "components": [
            {
              "internalType": "uint256",
              "name": "tokenId",
              "type": "uint256"
            },
            {
              "internalType": "string",
              "name": "tokenURI",
              "type": "string"
            },
            {
              "internalType": "uint256",
              "name": "supply",
              "type": "uint256"
            },
            {
              "components": [
                {
                  "internalType": "address payable",
                  "name": "account",
                  "type": "address"
                },
                {
                  "internalType": "uint96",
                  "name": "value",
                  "type": "uint96"
                }
              ],
              "internalType": "struct LibPart.Part[]",
              "name": "creators",
              "type": "tuple[]"
            },
            {
              "components": [
                {
                  "internalType": "address payable",
                  "name": "account",
                  "type": "address"
                },
                {
                  "internalType": "uint96",
                  "name": "value",
                  "type": "uint96"
                }
              ],
              "internalType": "struct LibPart.Part[]",
              "name": "royalties",
              "type": "tuple[]"
            },
            {
              "internalType": "bytes[]",
              "name": "signatures",
              "type": "bytes[]"
            }
          ],
          "internalType": "struct LibERC1155LazyMint.Mint1155Data",
          "name": "data",
          "type": "tuple"
        },
        {
          "internalType": "address",
          "name": "from",
          "type": "address"
        },
        {
          "internalType": "address",
          "name": "to",
          "type": "address"
        },
        {
          "internalType": "uint256",
          "name": "amount",
          "type": "uint256"
        }
      ],
      "name": "transferFromOrMint",
      "outputs": [],
      "stateMutability": "nonpayable",
      "type": "function"
    },
    {
      "inputs": [
        {
          "internalType": "address",
          "name": "newOwner",
          "type": "address"
        }
      ],
      "name": "transferOwnership",
      "outputs": [],
      "stateMutability": "nonpayable",
      "type": "function"
    },
    {
      "inputs": [
        {
          "internalType": "uint256",
          "name": "_id",
          "type": "uint256"
        },
        {
          "internalType": "address",
          "name": "_from",
          "type": "address"
        },
        {
          "internalType": "address",
          "name": "_to",
          "type": "address"
        }
      ],
      "name": "updateAccount",
      "outputs": [],
      "stateMutability": "nonpayable",
      "type": "function"
    },
    {
      "inputs": [
        {
          "internalType": "uint256",
          "name": "id",
          "type": "uint256"
        }
      ],
      "name": "uri",
      "outputs": [
        {
          "internalType": "string",
          "name": "",
          "type": "string"
        }
      ],
      "stateMutability": "view",
      "type": "function"
    }
  ],
  "bytecode": "0x608060405234801561001057600080fd5b506152fa806100206000396000f3fe608060405234801561001057600080fd5b50600436106102475760003560e01c8063891be9741161013b578063c6682862116100b8578063e985e9c51161007c578063e985e9c51461050e578063f242432a14610521578063f2fde38b14610534578063f5298aca14610547578063ffc4e0a71461055a57600080fd5b8063c6682862146104ce578063cad96cca146104d6578063d5abeb01146104e9578063e07f2319146104f3578063e8a3d4851461050657600080fd5b8063983b2d56116100ff578063983b2d5614610455578063a22cb46514610468578063aa271e1a1461047b578063b84c8246146104a8578063c47f0027146104bb57600080fd5b8063891be974146103ec5780638da5cb5b1461040c5780638f113c3d14610427578063938e3d7b1461043a57806395d89b411461044d57600080fd5b80632a55205a116101c95780635c975abb1161018d5780635c975abb146103aa57806361e05459146103b65780636b20c454146103c95780636c0360eb146103dc578063715018a6146103e457600080fd5b80632a55205a1461031f5780632eb2c2d6146103515780633092afd5146103645780634e1273f41461037757806355f804b31461039757600080fd5b80630eaead67116102105780630eaead67146102d257806313faede6146102e5578063162094c4146102ef578063173c43d214610302578063239c70ae1461031557600080fd5b8062fdd58e1461024c57806301ffc9a71461027257806302329a291461029557806306fdde03146102aa5780630e89341c146102bf575b600080fd5b61025f61025a366004613fc2565b61056d565b6040519081526020015b60405180910390f35b610285610280366004614004565b610609565b6040519015158152602001610269565b6102a86102a3366004614031565b610614565b005b6102b2610635565b60405161026991906140a4565b6102b26102cd3660046140b7565b6106c4565b6102a86102e036600461440d565b6106cf565b61025f61032e5481565b6102a86102fd366004614466565b6107c0565b6102a86103103660046144ac565b6107d6565b61025f6103305481565b61033261032d366004614578565b610832565b604080516001600160a01b039093168352602083019190915201610269565b6102a861035f366004614600565b61096d565b6102a86103723660046146ad565b610bce565b61038a610385366004614739565b610c24565b60405161026991906147cd565b6102a86103a53660046147e0565b610d4d565b6102fb5460ff16610285565b6102a86103c4366004614814565b610d98565b6102a86103d7366004614906565b610e41565b6102b2611005565b6102a8611098565b6103ff6103fa3660046140b7565b6110ac565b60405161026991906149c8565b6033546040516001600160a01b039091168152602001610269565b6102a8610435366004614814565b61113c565b6102a86104483660046147e0565b611284565b6102b2611295565b6102a86104633660046146ad565b6112a3565b6102a86104763660046149db565b6112fe565b6102856104893660046146ad565b6001600160a01b031660009081526102c8602052604090205460ff1690565b6102a86104b63660046147e0565b6113d5565b6102a86104c93660046147e0565b6113f1565b6102b261140d565b6103ff6104e43660046140b7565b61141b565b61025f61032f5481565b6102a8610501366004614a10565b611496565b6102b26114e7565b61028561051c366004614a52565b6114f5565b6102a861052f366004614a8b565b611508565b6102a86105423660046146ad565b611666565b6102a8610555366004614af3565b6116dc565b6102a8610568366004614b28565b61174f565b60006001600160a01b0383166105de5760405162461bcd60e51b815260206004820152602b60248201527f455243313135353a2062616c616e636520717565727920666f7220746865207a60448201526a65726f206164647265737360a81b60648201526084015b60405180910390fd5b5060008181526097602090815260408083206001600160a01b03861684529091529020545b92915050565b6000610603826117b3565b61061c6117be565b801561062d5761062a611818565b50565b61062a611873565b610262805461064390614b91565b80601f016020809104026020016040519081016040528092919081815260200182805461066f90614b91565b80156106bc5780601f10610691576101008083540402835291602001916106bc565b820191906000526020600020905b81548152906001019060200180831161069f57829003601f168201915b505050505081565b6060610603826118ad565b6102965460ff16156107b05782606001516000815181106106f2576106f2614bcc565b6020026020010151600001516001600160a01b03166107196033546001600160a01b031690565b6001600160a01b0316148061076e575061076e836060015160008151811061074357610743614bcc565b6020026020010151600001516001600160a01b031660009081526102c8602052604090205460ff1690565b6107b05760405162461bcd60e51b81526020600482015260136024820152723737ba1037bbb732b91037b91036b4b73a32b960691b60448201526064016105d5565b6107bb8383836119b5565b505050565b6107c86117be565b6107d28282611dcb565b5050565b6107e4868686868686611e30565b610296805460ff191690557fcc215b7682459c30faa0e854780165d503a7d62d22a9aaaad6334585dc63343e33878760405161082293929190614be2565b60405180910390a1505050505050565b60008281526101fa6020526040812054819061085357506000905080610966565b60008481526101fa6020908152604080832080548251818502810185019093528083529192909190849084015b828210156108cf57600084815260209081902060408051808201909152908401546001600160a01b0381168252600160a01b90046001600160601b031681830152825260019092019101610880565b505050509050806000815181106108e8576108e8614bcc565b60209081029190910101515192506000805b82518110156109495782818151811061091557610915614bcc565b6020026020010151602001516001600160601b0316826109359190614c2e565b91508061094181614c46565b9150506108fa565b506127106109578683614c61565b6109619190614c96565b925050505b9250929050565b815183511461098e5760405162461bcd60e51b81526004016105d590614caa565b6001600160a01b0384166109b45760405162461bcd60e51b81526004016105d590614cf2565b6001600160a01b0385163314806109d057506109d085336114f5565b610a375760405162461bcd60e51b815260206004820152603260248201527f455243313135353a207472616e736665722063616c6c6572206973206e6f74206044820152711bdddb995c881b9bdc88185c1c1c9bdd995960721b60648201526084016105d5565b33610a46818787878787611f6c565b60005b8451811015610b60576000858281518110610a6657610a66614bcc565b602002602001015190506000858381518110610a8457610a84614bcc565b60200260200101519050610af1816040518060600160405280602a815260200161523b602a91396097600086815260200190815260200160002060008d6001600160a01b03166001600160a01b0316815260200190815260200160002054611f719092919063ffffffff16565b60008381526097602090815260408083206001600160a01b038e811685529252808320939093558a1681522054610b289082611f9d565b60009283526097602090815260408085206001600160a01b038c1686529091529092209190915550610b5981614c46565b9050610a49565b50846001600160a01b0316866001600160a01b0316826001600160a01b03167f4a39dc06d4c0dbc64b70af90fd698a233a518aa5d07e595d983b8c0526c8f7fb8787604051610bb0929190614d37565b60405180910390a4610bc6818787878787611fa9565b505050505050565b610bd66117be565b6001600160a01b03811660008181526102c86020526040808220805460ff19169055519091907f3042b80e435ae46c334b2cfec51a66d64c9a8a8af4cd0c279a124c35a09e91dd908390a350565b60608151835114610c895760405162461bcd60e51b815260206004820152602960248201527f455243313135353a206163636f756e747320616e6420696473206c656e677468604482015268040dad2e6dac2e8c6d60bb1b60648201526084016105d5565b600083516001600160401b03811115610ca457610ca46140d0565b604051908082528060200260200182016040528015610ccd578160200160208202803683370190505b50905060005b8451811015610d4557610d18858281518110610cf157610cf1614bcc565b6020026020010151858381518110610d0b57610d0b614bcc565b602002602001015161056d565b828281518110610d2a57610d2a614bcc565b6020908102919091010152610d3e81614c46565b9050610cd3565b509392505050565b610d556117be565b610d5e81612114565b7f87cdeaffd8e70903d6ce7cc983fac3b09ca79e83818124c98e47a1d70f8027d681604051610d8d91906140a4565b60405180910390a150565b610da6878787878686611e30565b60005b8351811015610de857610dd6848281518110610dc757610dc7614bcc565b602002602001015160016112fe565b80610de081614c46565b915050610da9565b50610296805460ff191660011790557f7da6bc204c8c4856a6aff786a6cb81c59477c782191dc51837d644a8ad50f2cc610e1f3390565b8888604051610e3093929190614be2565b60405180910390a150505050505050565b8051825114610e835760405162461bcd60e51b815260206004820152600e60248201526d69647320213d20616d6f756e747360901b60448201526064016105d5565b600082516001600160401b03811115610e9e57610e9e6140d0565b604051908082528060200260200182016040528015610ec7578160200160208202803683370190505b509050600083516001600160401b03811115610ee557610ee56140d0565b604051908082528060200260200182016040528015610f0e578160200160208202803683370190505b50905060005b8451811015610fa557610f59858281518110610f3257610f32614bcc565b6020026020010151858381518110610f4c57610f4c614bcc565b6020026020010151612128565b848381518110610f6b57610f6b614bcc565b60200260200101848481518110610f8457610f84614bcc565b60209081029190910101919091525280610f9d81614c46565b915050610f14565b50610fb185858461219b565b6001600160a01b038516336001600160a01b03167fcf3391513e21a9d4a0348f8e890080170eba18dc62db35b60d8a518b7088eb3a8684604051610ff6929190614d37565b60405180910390a35050505050565b606061012f805461101590614b91565b80601f016020809104026020016040519081016040528092919081815260200182805461104190614b91565b801561108e5780601f106110635761010080835404028352916020019161108e565b820191906000526020600020905b81548152906001019060200180831161107157829003601f168201915b5050505050905090565b6110a06117be565b6110aa60006121de565b565b60606101fb6000838152602001908152602001600020805480602002602001604051908101604052809291908181526020016000905b8282101561113157600084815260209081902060408051808201909152908401546001600160a01b0381168252600160a01b90046001600160601b0316818301528252600190920191016110e2565b505050509050919050565b600054610100900460ff161580801561115c5750600054600160ff909116105b806111765750303b158015611176575060005460ff166001145b6111925760405162461bcd60e51b81526004016105d590614d5c565b6000805460ff1916600117905580156111b5576000805461ff0019166101001790555b6111c3888888888787611e30565b60005b84518110156111f6576111e4858281518110610dc757610dc7614bcc565b806111ee81614c46565b9150506111c6565b50610296805460ff191660011790557f7da6bc204c8c4856a6aff786a6cb81c59477c782191dc51837d644a8ad50f2cc61122d3390565b898960405161123e93929190614be2565b60405180910390a1801561127a576000805461ff0019169055604051600181526000805160206152658339815191529060200160405180910390a15b5050505050505050565b61128c6117be565b61062a81612230565b610263805461064390614b91565b6112ab6117be565b6001600160a01b03811660008181526102c86020526040808220805460ff1916600190811790915590519092917f3042b80e435ae46c334b2cfec51a66d64c9a8a8af4cd0c279a124c35a09e91dd91a350565b336001600160a01b03831614156113695760405162461bcd60e51b815260206004820152602960248201527f455243313135353a2073657474696e6720617070726f76616c20737461747573604482015268103337b91039b2b63360b91b60648201526084016105d5565b3360008181526098602090815260408083206001600160a01b03871680855290835292819020805460ff191686151590811790915590519081529192917f17307eab39ab6107e8899845ad3d59bd9653f200f220920489ca2b5937696c31910160405180910390a35050565b6113dd6117be565b80516107d290610263906020840190613f04565b6113f96117be565b80516107d290610262906020840190613f04565b61032d805461064390614b91565b60008181526101fa6020908152604080832080548251818502810185019093528083526060949293919290918401821561113157600084815260209081902060408051808201909152908401546001600160a01b0381168252600160a01b90046001600160601b0316818301528252600190920191016110e2565b336001600160a01b038316146114dc5760405162461bcd60e51b815260206004820152600b60248201526a1b9bdd08185b1b1bddd95960aa1b60448201526064016105d5565b6107bb838383612244565b610230805461064390614b91565b60006115018383612306565b9392505050565b6001600160a01b03841661152e5760405162461bcd60e51b81526004016105d590614cf2565b6001600160a01b03851633148061154a575061154a85336114f5565b6115665760405162461bcd60e51b81526004016105d590614daa565b3361158581878761157688612356565b61157f88612356565b87611f6c565b6115cc836040518060600160405280602a815260200161523b602a913960008781526097602090815260408083206001600160a01b038d1684529091529020549190611f71565b60008581526097602090815260408083206001600160a01b038b811685529252808320939093558716815220546116039084611f9d565b60008581526097602090815260408083206001600160a01b038a81168086529184529382902094909455805188815291820187905289831692851691600080516020615189833981519152910160405180910390a4610bc68187878787876123a1565b61166e6117be565b6001600160a01b0381166116d35760405162461bcd60e51b815260206004820152602660248201527f4f776e61626c653a206e6577206f776e657220697320746865207a65726f206160448201526564647265737360d01b60648201526084016105d5565b61062a816121de565b6000806116e98484612128565b909250905081156116ff576116ff85858461246b565b80156117485760408051858152602081018390526001600160a01b0387169133917f5110a21391aa55386de41fe7a3e3dffb40132d38d629a113a7f4afff251b1a019101610ff6565b5050505050565b600061175f84866000015161056d565b90508181156117a25782808310156117745750815b611794868689600001518460405180602001604052806000815250611508565b61179e8185614df3565b9150505b8015610bc657610bc68685836106cf565b6000610603826124ae565b6033546001600160a01b031633146110aa5760405162461bcd60e51b815260206004820181905260248201527f4f776e61626c653a2063616c6c6572206973206e6f7420746865206f776e657260448201526064016105d5565b6118206124b9565b6102fb805460ff191660011790557f62e78cea01bee320cd4e420270b5ea74000d11b0c9f74754ebdbfc544b05a2586118563390565b6040516001600160a01b03909116815260200160405180910390a1565b61187b612500565b6102fb805460ff191690557f5db9ee0a495bf2e6ff9c91a7834c1ba4fdd244a5e8aa4e537bd38aeae4b073aa33611856565b600081815261012e60205260408120805460609291906118cc90614b91565b80601f01602080910402602001604051908101604052809291908181526020018280546118f890614b91565b80156119455780601f1061191a57610100808354040283529160200191611945565b820191906000526020600020905b81548152906001019060200180831161192857829003601f168201915b505050505090506000611956611005565b9050805160001415611969575092915050565b8151156119825761197a818361254a565b949350505050565b8061198c85612627565b60405160200161199d929190614e0a565b60405160208183030381529060405292505050919050565b825160601c33808214806119ce57506119ce82826114f5565b611a2b5760405162461bcd60e51b815260206004820152602860248201527f455243313135353a207472616e736665722063616c6c6572206973206e6f7420604482015267185c1c1c9bdd995960c21b60648201526084016105d5565b60008311611a6e5760405162461bcd60e51b815260206004820152601060248201526f185b5bdd5b9d081a5b98dbdc9c9958dd60821b60448201526064016105d5565b845160009081526101fc6020526040902054611cbd578460600151600081518110611a9b57611a9b614bcc565b6020026020010151600001516001600160a01b0316826001600160a01b031614611afb5760405162461bcd60e51b81526020600482015260116024820152701d1bdad95b9259081a5b98dbdc9c9958dd607a1b60448201526064016105d5565b6000856040015111611b425760405162461bcd60e51b815260206004820152601060248201526f1cdd5c1c1b1e481a5b98dbdc9c9958dd60821b60448201526064016105d5565b8460a001515185606001515114611b9b5760405162461bcd60e51b815260206004820181905260248201527f63726561746f7273206e6f7420657175616c20746f207369676e61747572657360448201526064016105d5565b6000611ba686612724565b905060005b866060015151811015611c7257600087606001518281518110611bd057611bd0614bcc565b6020026020010151600001519050836001600160a01b0316816001600160a01b031614611c5f57611c376040518060400160405280602081526020017f76616c69646174696e672c2063726561746f723a25732073656e6465723a2573815250828661294a565b611c5f81848a60a001518581518110611c5257611c52614bcc565b6020026020010151612991565b5080611c6a81614c46565b915050611bab565b50611c858660000151876040015161299c565b611c9786600001518760800151612a07565b611ca986600001518760600151612c23565b611cbb86600001518760200151611dcb565b505b611cdc8486600001518560405180602001604052806000815250612e82565b836001600160a01b0316826001600160a01b031614611d8857845160408051918252602082018590526001600160a01b038085169260009291851691600080516020615189833981519152910160405180910390a4836001600160a01b0316826001600160a01b0316826001600160a01b0316600080516020615189833981519152886000015187604051611d7b929190918252602082015260400190565b60405180910390a4611748565b845160408051918252602082018590526001600160a01b038087169260009291851691600080516020615189833981519152910160405180910390a45050505050565b600082815261012e602090815260409091208251611deb92840190613f04565b50817f6bb7ff708619ba0610cba295a58592e0451dee2622938c8755667688daf3529b611e17846118ad565b604051611e2491906140a4565b60405180910390a25050565b600054610100900460ff1615808015611e505750600054600160ff909116105b80611e6a5750303b158015611e6a575060005460ff166001145b611e865760405162461bcd60e51b81526004016105d590614d5c565b6000805460ff191660011790558015611ea9576000805461ff0019166101001790555b611eb1612e94565b611eb9612ec4565b611ec1612f6d565b611ec9612f6d565b611ed1612f94565b611ee960405180602001604052806000815250613050565b611ef284613102565b611efa612ec4565b611f02612ec4565b611f0c87876131c0565b611f14612ec4565b611f1d85612114565b611f2883600161329b565b611f3382600161329b565b8015611f63576000805461ff00191690556040516001815260008051602061526583398151915290602001610e30565b50505050505050565b610bc6565b60008184841115611f955760405162461bcd60e51b81526004016105d591906140a4565b505050900390565b60006115018284614c2e565b6001600160a01b0384163b15610bc65760405163bc197c8160e01b81526001600160a01b0385169063bc197c8190611fed9089908990889088908890600401614e39565b602060405180830381600087803b15801561200757600080fd5b505af1925050508015612037575060408051601f3d908101601f1916820190925261203491810190614e97565b60015b6120e457612043614eb4565b806308c379a0141561207d5750612058614ed0565b80612063575061207f565b8060405162461bcd60e51b81526004016105d591906140a4565b505b60405162461bcd60e51b815260206004820152603460248201527f455243313135353a207472616e7366657220746f206e6f6e20455243313135356044820152732932b1b2b4bb32b91034b6b83632b6b2b73a32b960611b60648201526084016105d5565b6001600160e01b0319811663bc197c8160e01b14611f635760405162461bcd60e51b81526004016105d590614f59565b80516107d29061012f906020840190613f04565b806000606084901c338114156121935760008581526101fc6020526040902054849250801561217b5760008681526101fd602052604081205461216b9083614df3565b905080861115612179578093505b505b61218586846132f3565b61218f8386614df3565b9350505b509250929050565b6001600160a01b0383163314806121b757506121b783336114f5565b6121d35760405162461bcd60e51b81526004016105d590614daa565b6107bb83838361331b565b603380546001600160a01b038381166001600160a01b0319831681179093556040519116919082907f8be0079c531659141344cd1fd0a4f28419497f9722a3daafe3b4186f6b6457e090600090a35050565b80516107d290610230906020840190613f04565b60008381526101fa6020526040812054905b818110156117485760008581526101fa6020526040902080546001600160a01b03861691908390811061228b5761228b614bcc565b6000918252602090912001546001600160a01b031614156122f45760008581526101fa602052604090208054849190839081106122ca576122ca614bcc565b600091825260209091200180546001600160a01b0319166001600160a01b03929092169190911790555b806122fe81614c46565b915050612256565b6001600160a01b038116600090815260c9602052604081205460ff168061150157506001600160a01b0380841660009081526098602090815260408083209386168352929052205460ff16611501565b6040805160018082528183019092526060916000919060208083019080368337019050509050828160008151811061239057612390614bcc565b602090810291909101015292915050565b6001600160a01b0384163b15610bc65760405163f23a6e6160e01b81526001600160a01b0385169063f23a6e61906123e59089908990889088908890600401614fa1565b602060405180830381600087803b1580156123ff57600080fd5b505af192505050801561242f575060408051601f3d908101601f1916820190925261242c91810190614e97565b60015b61243b57612043614eb4565b6001600160e01b0319811663f23a6e6160e01b14611f635760405162461bcd60e51b81526004016105d590614f59565b6001600160a01b038316331480612487575061248783336114f5565b6124a35760405162461bcd60e51b81526004016105d590614daa565b6107bb8383836134eb565b6000610603826135d6565b6102fb5460ff16156110aa5760405162461bcd60e51b815260206004820152601060248201526f14185d5cd8589b194e881c185d5cd95960821b60448201526064016105d5565b6102fb5460ff166110aa5760405162461bcd60e51b815260206004820152601460248201527314185d5cd8589b194e881b9bdd081c185d5cd95960621b60448201526064016105d5565b8051825160609184918491101561258657848460405160200161256e929190614e0a565b60405160208183030381529060405292505050610603565b60005b825181101561261d578281815181106125a4576125a4614bcc565b602001015160f81c60f81b6001600160f81b0319168282815181106125cb576125cb614bcc565b01602001516001600160f81b0319161461260b5785856040516020016125f2929190614e0a565b6040516020818303038152906040529350505050610603565b8061261581614c46565b915050612589565b5092949350505050565b60608161264b5750506040805180820190915260018152600360fc1b602082015290565b8160005b8115612675578061265f81614c46565b915061266e9050600a83614c96565b915061264f565b6000816001600160401b0381111561268f5761268f6140d0565b6040519080825280601f01601f1916602001820160405280156126b9576020820181803683370190505b5090505b841561197a576126ce600183614df3565b91506126db600a86614fe6565b6126e6906030614c2e565b60f81b8183815181106126fb576126fb614bcc565b60200101906001600160f81b031916908160001a90535061271d600a86614c96565b94506126bd565b6000808260800151516001600160401b03811115612744576127446140d0565b60405190808252806020026020018201604052801561276d578160200160208202803683370190505b50905060005b8360800151518110156127d5576127a68460800151828151811061279957612799614bcc565b6020026020010151613678565b8282815181106127b8576127b8614bcc565b6020908102919091010152806127cd81614c46565b915050612773565b5060008360600151516001600160401b038111156127f5576127f56140d0565b60405190808252806020026020018201604052801561281e578160200160208202803683370190505b50905060005b8460600151518110156128795761284a8560600151828151811061279957612799614bcc565b82828151811061285c5761285c614bcc565b60209081029190910101528061287181614c46565b915050612824565b507ffb988707ebb338694f318760b0fd5cfe756d00a2ade251fda110b80c336a3c7f84600001518560400151866020015180519060200120846040516020016128c29190614ffa565b60405160208183030381529060405280519060200120866040516020016128e99190614ffa565b60408051601f198184030181528282528051602091820120908301979097528101949094526060840192909252608083015260a082015260c081019190915260e0016040516020818303038152906040528051906020012092505050919050565b6107bb83838360405160240161296293929190615030565b60408051601f198184030181529190526020810180516001600160e01b03166307e763af60e51b1790526136f4565b6107bb838383613715565b60008281526101fc6020526040902054156129b657600080fd5b60008281526101fc602090815260409182902083905581518481529081018390527f5e2aa66efd74cce82b21852e317e5490d9ecc9e6bb953ae24d90851258cc2f5c91015b60405180910390a15050565b6000805b8251811015612bb95760006001600160a01b0316838281518110612a3157612a31614bcc565b6020026020010151600001516001600160a01b03161415612a945760405162461bcd60e51b815260206004820152601b60248201527f526563697069656e742073686f756c642062652070726573656e74000000000060448201526064016105d5565b828181518110612aa657612aa6614bcc565b6020026020010151602001516001600160601b031660001415612b0b5760405162461bcd60e51b815260206004820181905260248201527f526f79616c74792076616c75652073686f756c6420626520706f73697469766560448201526064016105d5565b828181518110612b1d57612b1d614bcc565b6020026020010151602001516001600160601b031682612b3d9190614c2e565b91506101fa6000858152602001908152602001600020838281518110612b6557612b65614bcc565b6020908102919091018101518254600181018455600093845292829020815191909201516001600160601b0316600160a01b026001600160a01b039091161791015580612bb181614c46565b915050612a0b565b506127108110612c195760405162461bcd60e51b815260206004820152602560248201527f526f79616c747920746f74616c2076616c75652073686f756c64206265203c20604482015264031303030360dc1b60648201526084016105d5565b6107bb838361391a565b60008281526101fb6020526040812090805b8351811015612dda5760006001600160a01b0316848281518110612c5b57612c5b614bcc565b6020026020010151600001516001600160a01b03161415612cbe5760405162461bcd60e51b815260206004820152601960248201527f4163636f756e742073686f756c642062652070726573656e740000000000000060448201526064016105d5565b838181518110612cd057612cd0614bcc565b6020026020010151602001516001600160601b031660001415612d355760405162461bcd60e51b815260206004820181905260248201527f43726561746f722073686172652073686f756c6420626520706f73697469766560448201526064016105d5565b82848281518110612d4857612d48614bcc565b6020908102919091018101518254600181018455600093845292829020815191909201516001600160601b0316600160a01b026001600160a01b03909116179101558351612dc690859083908110612da257612da2614bcc565b6020026020010151602001516001600160601b031683611f9d90919063ffffffff16565b915080612dd281614c46565b915050612c35565b508061271014612e435760405162461bcd60e51b815260206004820152602e60248201527f746f74616c20616d6f756e74206f662063726561746f7273207368617265207360448201526d0686f756c642062652031303030360941b60648201526084016105d5565b7f841ffb90d4cabdd1f16034f3fa831d79060febbb8167bdd54a49269365bdf78f8484604051612e74929190615063565b60405180910390a150505050565b612e8e8484848461394b565b50505050565b600054610100900460ff16612ebb5760405162461bcd60e51b81526004016105d59061507c565b6110aa336121de565b600054610100900460ff1615808015612ee45750600054600160ff909116105b80612efe5750303b158015612efe575060005460ff166001145b612f1a5760405162461bcd60e51b81526004016105d590614d5c565b6000805460ff191660011790558015612f3d576000805461ff0019166101001790555b801561062a576000805461ff00191690556040516001815260008051602061526583398151915290602001610d8d565b600054610100900460ff166110aa5760405162461bcd60e51b81526004016105d59061507c565b600054610100900460ff1615808015612fb45750600054600160ff909116105b80612fce5750303b158015612fce575060005460ff166001145b612fea5760405162461bcd60e51b81526004016105d590614d5c565b6000805460ff19166001179055801561300d576000805461ff0019166101001790555b612f3d604051806040016040528060088152602001674d696e743131353560c01b815250604051806040016040528060018152602001603160f81b815250613aaf565b600054610100900460ff16158080156130705750600054600160ff909116105b8061308a5750303b15801561308a575060005460ff166001145b6130a65760405162461bcd60e51b81526004016105d590614d5c565b6000805460ff1916600117905580156130c9576000805461ff0019166101001790555b6130d282613af2565b80156107d2576000805461ff001916905560405160018152600080516020615265833981519152906020016129fb565b600054610100900460ff16158080156131225750600054600160ff909116105b8061313c5750303b15801561313c575060005460ff166001145b6131585760405162461bcd60e51b81526004016105d590614d5c565b6000805460ff19166001179055801561317b576000805461ff0019166101001790555b815161318f90610230906020850190613f04565b5080156107d2576000805461ff001916905560405160018152600080516020615265833981519152906020016129fb565b600054610100900460ff16158080156131e05750600054600160ff909116105b806131fa5750303b1580156131fa575060005460ff166001145b6132165760405162461bcd60e51b81526004016105d590614d5c565b6000805460ff191660011790558015613239576000805461ff0019166101001790555b825161324d90610262906020860190613f04565b50815161326290610263906020850190613f04565b5080156107bb576000805461ff0019169055604051600181526000805160206152658339815191529060200160405180910390a1505050565b6001600160a01b038216600081815260c96020908152604091829020805460ff191685151590811790915591519182527f270dbb8ba4292910ae92862466486be25c355c837270a3d8824b36a8bc7c653b9101611e24565b60008281526101fd602052604081208054839290613312908490614c2e565b90915550505050565b6001600160a01b0383166133415760405162461bcd60e51b81526004016105d5906150c7565b80518251146133625760405162461bcd60e51b81526004016105d590614caa565b600033905061338581856000868660405180602001604052806000815250611f6c565b60005b835181101561348c576134268382815181106133a6576133a6614bcc565b60200260200101516040518060600160405280602481526020016151cd60249139609760008886815181106133dd576133dd614bcc565b602002602001015181526020019081526020016000206000896001600160a01b03166001600160a01b0316815260200190815260200160002054611f719092919063ffffffff16565b6097600086848151811061343c5761343c614bcc565b602002602001015181526020019081526020016000206000876001600160a01b03166001600160a01b0316815260200190815260200160002081905550808061348490614c46565b915050613388565b5060006001600160a01b0316846001600160a01b0316826001600160a01b03167f4a39dc06d4c0dbc64b70af90fd698a233a518aa5d07e595d983b8c0526c8f7fb86866040516134dd929190614d37565b60405180910390a450505050565b6001600160a01b0383166135115760405162461bcd60e51b81526004016105d5906150c7565b336135408185600061352287612356565b61352b87612356565b60405180602001604052806000815250611f6c565b613587826040518060600160405280602481526020016151cd6024913960008681526097602090815260408083206001600160a01b038b1684529091529020549190611f71565b60008481526097602090815260408083206001600160a01b03898116808652918452828520959095558151888152928301879052929385169160008051602061518983398151915291016134dd565b60006001600160e01b03198216636db15a0f60e01b148061360757506001600160e01b0319821663656cb66560e11b145b8061362257506001600160e01b0319821663152a902d60e11b145b8061363d57506001600160e01b031982166301ffc9a760e01b145b8061365857506001600160e01b03198216636cdb3d1360e11b145b8061060357506001600160e01b031982166303a24d0760e21b1492915050565b80516020808301516040516000936136d7937f397e04204c1e1a60ee8724b71f8244e10ab5f2e9009854d80f602bda21b59ebb939192019283526001600160a01b039190911660208301526001600160601b0316604082015260600190565b604051602081830303815290604052805190602001209050919050565b80516a636f6e736f6c652e6c6f67602083016000808483855afa5050505050565b600061372083613b05565b9050600082516041141561375c5761374f6040518060600160405280602581526020016151f160259139613b53565b6137598284613b96565b90505b846001600160a01b0316816001600160a01b0316146117485761379860405180606001604052806040815260200161528560409139868361294a565b6001600160a01b0385163b156138ae576137c96040518060600160405280602481526020016151a960249139613b53565b604051630b135d3f60e11b808252906001600160a01b03871690631626ba7e906137f9908690889060040161510a565b60206040518083038186803b15801561381157600080fd5b505afa158015613825573d6000803e3d6000fd5b505050506040513d601f19601f820116820180604052508101906138499190614e97565b6001600160e01b031916146040518060400160405280601c81526020017f7369676e617475726520766572696669636174696f6e206572726f7200000000815250906138a85760405162461bcd60e51b81526004016105d591906140a4565b50611748565b6138cf60405180606001604052806025815260200161521660259139613b53565b604080518082018252601c81527f7369676e617475726520766572696669636174696f6e206572726f72000000006020820152905162461bcd60e51b81526105d591906004016140a4565b7f3fa96d7b6bcbfe71ef171666d84db3cf52fa2d1c8afdb1cc8e486177f208b7df82826040516129fb929190615063565b60008381526101fd6020526040812054613966908490611f9d565b60008581526101fc60205260409020549091508111156139bb5760405162461bcd60e51b815260206004820152601060248201526f6d6f7265207468616e20737570706c7960801b60448201526064016105d5565b60008481526101fd602052604090208190556001600160a01b038516613a2d5760405162461bcd60e51b815260206004820152602160248201527f455243313135353a206d696e7420746f20746865207a65726f206164647265736044820152607360f81b60648201526084016105d5565b33613a4d81600088613a3e89612356565b613a4789612356565b88611f6c565b60008581526097602090815260408083206001600160a01b038a168452909152902054613a7a9085611f9d565b60008681526097602090815260408083206001600160a01b038b168452909152812091909155610bc6908290888888886123a1565b600054610100900460ff16613ad65760405162461bcd60e51b81526004016105d59061507c565b8151602092830120815191909201206101629190915561016355565b80516107d2906099906020840190613f04565b6000610603613b12613c11565b8360405161190160f01b6020820152602281018390526042810182905260009060620160405160208183030381529060405280519060200120905092915050565b61062a81604051602401613b6791906140a4565b60408051601f198184030181529190526020810180516001600160e01b031663104c13eb60e21b1790526136f4565b60008151604114613be95760405162461bcd60e51b815260206004820152601f60248201527f45434453413a20696e76616c6964207369676e6174757265206c656e6774680060448201526064016105d5565b60208201516040830151606084015160001a613c0786828585613c93565b9695505050505050565b6000613c8e7f8b73c3c69bb8fe3d512ecc4cf759cc79239f7b179b0ffacaa9a75d522b39400f613c416101625490565b610163546040805160208101859052908101839052606081018290524660808201523060a082015260009060c0016040516020818303038152906040528051906020012090509392505050565b905090565b60007f7fffffffffffffffffffffffffffffff5d576e7357a4501ddfe92f46681b20a0821115613d105760405162461bcd60e51b815260206004820152602260248201527f45434453413a20696e76616c6964207369676e6174757265202773272076616c604482015261756560f01b60648201526084016105d5565b6000601e8560ff161115613dd957613d29600486615123565b60ff16601b1480613d475750613d40600486615123565b60ff16601c145b613d635760405162461bcd60e51b81526004016105d590615146565b6001613d6e87613ec9565b613d79600488615123565b6040805160008152602081018083529390935260ff90911690820152606081018690526080810185905260a0016020604051602081039080840390855afa158015613dc8573d6000803e3d6000fd5b505050602060405103519050613e6a565b8460ff16601b1480613dee57508460ff16601c145b613e0a5760405162461bcd60e51b81526004016105d590615146565b60408051600081526020810180835288905260ff871691810191909152606081018590526080810184905260019060a0016020604051602081039080840390855afa158015613e5d573d6000803e3d6000fd5b5050506020604051035190505b6001600160a01b038116613ec05760405162461bcd60e51b815260206004820152601860248201527f45434453413a20696e76616c6964207369676e6174757265000000000000000060448201526064016105d5565b95945050505050565b6040517f19457468657265756d205369676e6564204d6573736167653a0a3332000000006020820152603c8101829052600090605c016136d7565b828054613f1090614b91565b90600052602060002090601f016020900481019282613f325760008555613f78565b82601f10613f4b57805160ff1916838001178555613f78565b82800160010185558215613f78579182015b82811115613f78578251825591602001919060010190613f5d565b50613f84929150613f88565b5090565b5b80821115613f845760008155600101613f89565b6001600160a01b038116811461062a57600080fd5b8035613fbd81613f9d565b919050565b60008060408385031215613fd557600080fd5b8235613fe081613f9d565b946020939093013593505050565b6001600160e01b03198116811461062a57600080fd5b60006020828403121561401657600080fd5b813561150181613fee565b80358015158114613fbd57600080fd5b60006020828403121561404357600080fd5b61150182614021565b60005b8381101561406757818101518382015260200161404f565b83811115612e8e5750506000910152565b6000815180845261409081602086016020860161404c565b601f01601f19169290920160200192915050565b6020815260006115016020830184614078565b6000602082840312156140c957600080fd5b5035919050565b634e487b7160e01b600052604160045260246000fd5b604081018181106001600160401b0382111715614105576141056140d0565b60405250565b601f8201601f191681016001600160401b0381118282101715614130576141306140d0565b6040525050565b60405160c081016001600160401b0381118282101715614159576141596140d0565b60405290565b600082601f83011261417057600080fd5b81356001600160401b03811115614189576141896140d0565b6040516141a0601f8301601f19166020018261410b565b8181528460208386010111156141b557600080fd5b816020850160208301376000918101602001919091529392505050565b60006001600160401b038211156141eb576141eb6140d0565b5060051b60200190565b600082601f83011261420657600080fd5b81356020614213826141d2565b60408051614221838261410b565b84815260069490941b860183019383810192508785111561424157600080fd5b8387015b858110156142a05782818a03121561425d5760008081fd5b8251614268816140e6565b813561427381613f9d565b8152818601356001600160601b038116811461428f5760008081fd5b818701528452928401928201614245565b50979650505050505050565b600082601f8301126142bd57600080fd5b813560206142ca826141d2565b6040516142d7828261410b565b83815260059390931b85018201928281019150868411156142f757600080fd5b8286015b848110156143365780356001600160401b0381111561431a5760008081fd5b6143288986838b010161415f565b8452509183019183016142fb565b509695505050505050565b600060c0828403121561435357600080fd5b61435b614137565b90508135815260208201356001600160401b038082111561437b57600080fd5b6143878583860161415f565b60208401526040840135604084015260608401359150808211156143aa57600080fd5b6143b6858386016141f5565b606084015260808401359150808211156143cf57600080fd5b6143db858386016141f5565b608084015260a08401359150808211156143f457600080fd5b50614401848285016142ac565b60a08301525092915050565b60008060006060848603121561442257600080fd5b83356001600160401b0381111561443857600080fd5b61444486828701614341565b935050602084013561445581613f9d565b929592945050506040919091013590565b6000806040838503121561447957600080fd5b8235915060208301356001600160401b0381111561449657600080fd5b6144a28582860161415f565b9150509250929050565b60008060008060008060c087890312156144c557600080fd5b86356001600160401b03808211156144dc57600080fd5b6144e88a838b0161415f565b975060208901359150808211156144fe57600080fd5b61450a8a838b0161415f565b9650604089013591508082111561452057600080fd5b61452c8a838b0161415f565b9550606089013591508082111561454257600080fd5b5061454f89828a0161415f565b93505061455e60808801613fb2565b915061456c60a08801613fb2565b90509295509295509295565b6000806040838503121561458b57600080fd5b50508035926020909101359150565b600082601f8301126145ab57600080fd5b813560206145b8826141d2565b6040516145c5828261410b565b83815260059390931b85018201928281019150868411156145e557600080fd5b8286015b8481101561433657803583529183019183016145e9565b600080600080600060a0868803121561461857600080fd5b853561462381613f9d565b9450602086013561463381613f9d565b935060408601356001600160401b038082111561464f57600080fd5b61465b89838a0161459a565b9450606088013591508082111561467157600080fd5b61467d89838a0161459a565b9350608088013591508082111561469357600080fd5b506146a08882890161415f565b9150509295509295909350565b6000602082840312156146bf57600080fd5b813561150181613f9d565b600082601f8301126146db57600080fd5b813560206146e8826141d2565b6040516146f5828261410b565b83815260059390931b850182019282810191508684111561471557600080fd5b8286015b8481101561433657803561472c81613f9d565b8352918301918301614719565b6000806040838503121561474c57600080fd5b82356001600160401b038082111561476357600080fd5b61476f868387016146ca565b9350602085013591508082111561478557600080fd5b506144a28582860161459a565b600081518084526020808501945080840160005b838110156147c2578151875295820195908201906001016147a6565b509495945050505050565b6020815260006115016020830184614792565b6000602082840312156147f257600080fd5b81356001600160401b0381111561480857600080fd5b61197a8482850161415f565b600080600080600080600060e0888a03121561482f57600080fd5b87356001600160401b038082111561484657600080fd5b6148528b838c0161415f565b985060208a013591508082111561486857600080fd5b6148748b838c0161415f565b975060408a013591508082111561488a57600080fd5b6148968b838c0161415f565b965060608a01359150808211156148ac57600080fd5b6148b88b838c0161415f565b955060808a01359150808211156148ce57600080fd5b506148db8a828b016146ca565b9350506148ea60a08901613fb2565b91506148f860c08901613fb2565b905092959891949750929550565b60008060006060848603121561491b57600080fd5b833561492681613f9d565b925060208401356001600160401b038082111561494257600080fd5b61494e8783880161459a565b9350604086013591508082111561496457600080fd5b506149718682870161459a565b9150509250925092565b600081518084526020808501945080840160005b838110156147c257815180516001600160a01b031688528301516001600160601b0316838801526040909601959082019060010161498f565b602081526000611501602083018461497b565b600080604083850312156149ee57600080fd5b82356149f981613f9d565b9150614a0760208401614021565b90509250929050565b600080600060608486031215614a2557600080fd5b833592506020840135614a3781613f9d565b91506040840135614a4781613f9d565b809150509250925092565b60008060408385031215614a6557600080fd5b8235614a7081613f9d565b91506020830135614a8081613f9d565b809150509250929050565b600080600080600060a08688031215614aa357600080fd5b8535614aae81613f9d565b94506020860135614abe81613f9d565b9350604086013592506060860135915060808601356001600160401b03811115614ae757600080fd5b6146a08882890161415f565b600080600060608486031215614b0857600080fd5b8335614b1381613f9d565b95602085013595506040909401359392505050565b60008060008060808587031215614b3e57600080fd5b84356001600160401b03811115614b5457600080fd5b614b6087828801614341565b9450506020850135614b7181613f9d565b92506040850135614b8181613f9d565b9396929550929360600135925050565b600181811c90821680614ba557607f821691505b60208210811415614bc657634e487b7160e01b600052602260045260246000fd5b50919050565b634e487b7160e01b600052603260045260246000fd5b6001600160a01b0384168152606060208201819052600090614c0690830185614078565b8281036040840152613c078185614078565b634e487b7160e01b600052601160045260246000fd5b60008219821115614c4157614c41614c18565b500190565b6000600019821415614c5a57614c5a614c18565b5060010190565b6000816000190483118215151615614c7b57614c7b614c18565b500290565b634e487b7160e01b600052601260045260246000fd5b600082614ca557614ca5614c80565b500490565b60208082526028908201527f455243313135353a2069647320616e6420616d6f756e7473206c656e677468206040820152670dad2e6dac2e8c6d60c31b606082015260800190565b60208082526025908201527f455243313135353a207472616e7366657220746f20746865207a65726f206164604082015264647265737360d81b606082015260800190565b604081526000614d4a6040830185614792565b8281036020840152613ec08185614792565b6020808252602e908201527f496e697469616c697a61626c653a20636f6e747261637420697320616c72656160408201526d191e481a5b9a5d1a585b1a5e995960921b606082015260800190565b60208082526029908201527f455243313135353a2063616c6c6572206973206e6f74206f776e6572206e6f7260408201526808185c1c1c9bdd995960ba1b606082015260800190565b600082821015614e0557614e05614c18565b500390565b60008351614e1c81846020880161404c565b835190830190614e3081836020880161404c565b01949350505050565b6001600160a01b0386811682528516602082015260a060408201819052600090614e6590830186614792565b8281036060840152614e778186614792565b90508281036080840152614e8b8185614078565b98975050505050505050565b600060208284031215614ea957600080fd5b815161150181613fee565b600060033d1115614ecd5760046000803e5060005160e01c5b90565b600060443d1015614ede5790565b6040516003193d81016004833e81513d6001600160401b038160248401118184111715614f0d57505050505090565b8285019150815181811115614f255750505050505090565b843d8701016020828501011115614f3f5750505050505090565b614f4e6020828601018761410b565b509095945050505050565b60208082526028908201527f455243313135353a204552433131353552656365697665722072656a656374656040820152676420746f6b656e7360c01b606082015260800190565b6001600160a01b03868116825285166020820152604081018490526060810183905260a060808201819052600090614fdb90830184614078565b979650505050505050565b600082614ff557614ff5614c80565b500690565b815160009082906020808601845b8381101561502457815185529382019390820190600101615008565b50929695505050505050565b6060815260006150436060830186614078565b6001600160a01b0394851660208401529290931660409091015292915050565b82815260406020820152600061197a604083018461497b565b6020808252602b908201527f496e697469616c697a61626c653a20636f6e7472616374206973206e6f74206960408201526a6e697469616c697a696e6760a81b606082015260800190565b60208082526023908201527f455243313135353a206275726e2066726f6d20746865207a65726f206164647260408201526265737360e81b606082015260800190565b82815260406020820152600061197a6040830184614078565b600060ff821660ff84168082101561513d5761513d614c18565b90039392505050565b60208082526022908201527f45434453413a20696e76616c6964207369676e6174757265202776272076616c604082015261756560f01b60608201526080019056fec3d58168c5ae7397731d063d5bbf3d657854427343f4c083240f7aacaa2d0f624552433132373156616c696461746f723a2073696e67657220697320636f6e7472616374455243313135353a206275726e20616d6f756e7420657863656564732062616c616e63654552433132373156616c696461746f723a207369676e6174757265206c656e6774682036354552433132373156616c696461746f723a207369676e6572206e6f7420636f6e7472616374455243313135353a20696e73756666696369656e742062616c616e636520666f72207472616e736665727f26b83ff96e1f2b6a682f133852f6798a09c465da95921460cefb38474024984552433132373156616c696461746f723a207369676e6174757265206e6f742066726f6d207369676e65722025732c207369676e657246726f6d536967202573a2646970667358221220bee42b079de2511f8378ed9c1b1d5f8e345b00fec6a90183b030bff8bb3a292b64736f6c63430008090033",
  "linkReferences": {},
  "deployedLinkReferences": {}
}